{"abi":[{"type":"constructor","inputs":[{"name":"_token","type":"address","internalType":"contract IERC20"},{"name":"_claimTime","type":"uint256","internalType":"uint256"}],"stateMutability":"nonpayable"},{"type":"function","name":"claimTime","inputs":[],"outputs":[{"name":"","type":"uint256","internalType":"uint256"}],"stateMutability":"view"},{"type":"function","name":"claimTokens","inputs":[],"outputs":[],"stateMutability":"nonpayable"},{"type":"function","name":"claimingWindowEndTime","inputs":[],"outputs":[{"name":"","type":"uint256","internalType":"uint256"}],"stateMutability":"view"},{"type":"function","name":"getVestingSchedule","inputs":[{"name":"beneficiary","type":"address","internalType":"address"}],"outputs":[{"name":"","type":"tuple","internalType":"struct vesting.VestingSchedule","components":[{"name":"totalAmount","type":"uint256","internalType":"uint256"},{"name":"releasedAmount","type":"uint256","internalType":"uint256"},{"name":"startTime","type":"uint256","internalType":"uint256"},{"name":"cliffDuration","type":"uint256","internalType":"uint256"},{"name":"vestingDuration","type":"uint256","internalType":"uint256"}]}],"stateMutability":"view"},{"type":"function","name":"owner","inputs":[],"outputs":[{"name":"","type":"address","internalType":"address"}],"stateMutability":"view"},{"type":"function","name":"renounceOwnership","inputs":[],"outputs":[],"stateMutability":"nonpayable"},{"type":"function","name":"setVestingSchedule","inputs":[{"name":"beneficiary","type":"address","internalType":"address"},{"name":"totalAmount","type":"uint256","internalType":"uint256"},{"name":"cliffDurationInDays","type":"uint256","internalType":"uint256"},{"name":"vestingDurationInDays","type":"uint256","internalType":"uint256"}],"outputs":[],"stateMutability":"nonpayable"},{"type":"function","name":"token","inputs":[],"outputs":[{"name":"","type":"address","internalType":"contract IERC20"}],"stateMutability":"view"},{"type":"function","name":"transferOwnership","inputs":[{"name":"newOwner","type":"address","internalType":"address"}],"outputs":[],"stateMutability":"nonpayable"},{"type":"function","name":"withdrawRemainingTokens","inputs":[],"outputs":[],"stateMutability":"nonpayable"},{"type":"event","name":"OwnershipTransferred","inputs":[{"name":"previousOwner","type":"address","indexed":true,"internalType":"address"},{"name":"newOwner","type":"address","indexed":true,"internalType":"address"}],"anonymous":false},{"type":"event","name":"TokensClaimed","inputs":[{"name":"beneficiary","type":"address","indexed":true,"internalType":"address"},{"name":"amount","type":"uint256","indexed":false,"internalType":"uint256"}],"anonymous":false},{"type":"event","name":"TokensVested","inputs":[{"name":"beneficiary","type":"address","indexed":true,"internalType":"address"},{"name":"amount","type":"uint256","indexed":false,"internalType":"uint256"}],"anonymous":false},{"type":"event","name":"TokensWithdrawn","inputs":[{"name":"owner","type":"address","indexed":true,"internalType":"address"},{"name":"amount","type":"uint256","indexed":false,"internalType":"uint256"}],"anonymous":false},{"type":"error","name":"ClaimingWindowNotOver","inputs":[]},{"type":"error","name":"CliffNotOver","inputs":[]},{"type":"error","name":"NoTokensToClaim","inputs":[]},{"type":"error","name":"NotReasonableTime","inputs":[]},{"type":"error","name":"OwnableInvalidOwner","inputs":[{"name":"owner","type":"address","internalType":"address"}]},{"type":"error","name":"OwnableUnauthorizedAccount","inputs":[{"name":"account","type":"address","internalType":"address"}]},{"type":"error","name":"ReentrancyGuardReentrantCall","inputs":[]},{"type":"error","name":"SafeERC20FailedOperation","inputs":[{"name":"token","type":"address","internalType":"address"}]}],"bytecode":{"object":"0x608060405234801561000f575f5ffd5b50604051611464380380611464833981810160405281019061003191906102c2565b335f73ffffffffffffffffffffffffffffffffffffffff168173ffffffffffffffffffffffffffffffffffffffff16036100a2575f6040517f1e4fbdf7000000000000000000000000000000000000000000000000000000008152600401610099919061030f565b60405180910390fd5b6100b18161015f60201b60201c565b50600180819055508160025f6101000a81548173ffffffffffffffffffffffffffffffffffffffff021916908373ffffffffffffffffffffffffffffffffffffffff16021790555062278d0081108061010c57506276a70081115b15610143576040517f0bcb977400000000000000000000000000000000000000000000000000000000815260040160405180910390fd5b62015180816101529190610355565b6004819055505050610396565b5f5f5f9054906101000a900473ffffffffffffffffffffffffffffffffffffffff169050815f5f6101000a81548173ffffffffffffffffffffffffffffffffffffffff021916908373ffffffffffffffffffffffffffffffffffffffff1602179055508173ffffffffffffffffffffffffffffffffffffffff168173ffffffffffffffffffffffffffffffffffffffff167f8be0079c531659141344cd1fd0a4f28419497f9722a3daafe3b4186f6b6457e060405160405180910390a35050565b5f5ffd5b5f73ffffffffffffffffffffffffffffffffffffffff82169050919050565b5f61024d82610224565b9050919050565b5f61025e82610243565b9050919050565b61026e81610254565b8114610278575f5ffd5b50565b5f8151905061028981610265565b92915050565b5f819050919050565b6102a18161028f565b81146102ab575f5ffd5b50565b5f815190506102bc81610298565b92915050565b5f5f604083850312156102d8576102d7610220565b5b5f6102e58582860161027b565b92505060206102f6858286016102ae565b9150509250929050565b61030981610243565b82525050565b5f6020820190506103225f830184610300565b92915050565b7f4e487b71000000000000000000000000000000000000000000000000000000005f52601160045260245ffd5b5f61035f8261028f565b915061036a8361028f565b92508282026103788161028f565b9150828204841483151761038f5761038e610328565b5b5092915050565b6110c1806103a35f395ff3fe608060405234801561000f575f5ffd5b506004361061009c575f3560e01c80638da5cb5b116100645780638da5cb5b146100f857806392de5bd5146101165780639f82906314610134578063f2fde38b14610164578063fc0c546a146101805761009c565b806327b3bf11146100a057806348c54b9d146100be57806359f3a97d146100c8578063715018a6146100e45780638afbf669146100ee575b5f5ffd5b6100a861019e565b6040516100b59190610c22565b60405180910390f35b6100c66101a4565b005b6100e260048036038101906100dd9190610cc3565b6102f6565b005b6100ec6104bf565b005b6100f66104d2565b005b61010061069f565b60405161010d9190610d36565b60405180910390f35b61011e6106c6565b60405161012b9190610c22565b60405180910390f35b61014e60048036038101906101499190610d4f565b6106cc565b60405161015b9190610def565b60405180910390f35b61017e60048036038101906101799190610d4f565b610754565b005b6101886107d8565b6040516101959190610e63565b60405180910390f35b60045481565b6101ac6107fd565b5f3390505f6101ba82610843565b90505f81036101f5576040517f0f3f861000000000000000000000000000000000000000000000000000000000815260040160405180910390fd5b5f60055f8473ffffffffffffffffffffffffffffffffffffffff1673ffffffffffffffffffffffffffffffffffffffff1681526020019081526020015f20905081816001015f8282546102489190610ea9565b9250508190555061029b338360025f9054906101000a900473ffffffffffffffffffffffffffffffffffffffff1673ffffffffffffffffffffffffffffffffffffffff1661096e9092919063ffffffff16565b8273ffffffffffffffffffffffffffffffffffffffff167f896e034966eaaf1adc54acc0f257056febbd300c9e47182cf761982cf1f5e430836040516102e19190610c22565b60405180910390a25050506102f46109ed565b565b6102fe6109f6565b5f60055f8673ffffffffffffffffffffffffffffffffffffffff1673ffffffffffffffffffffffffffffffffffffffff1681526020019081526020015f205f01541461037f576040517f08c379a000000000000000000000000000000000000000000000000000000000815260040161037690610f36565b60405180910390fd5b5f620151808361038f9190610f54565b90505f62015180836103a19190610f54565b90506040518060a001604052808681526020015f81526020014281526020018381526020018281525060055f8873ffffffffffffffffffffffffffffffffffffffff1673ffffffffffffffffffffffffffffffffffffffff1681526020019081526020015f205f820151815f0155602082015181600101556040820151816002015560608201518160030155608082015181600401559050505f600454834261044a9190610ea9565b6104549190610ea9565b905060035481111561046857806003819055505b8673ffffffffffffffffffffffffffffffffffffffff167fd4691cc79b8fc72aac1e8c0d15a2ca06d71a386c983f815266f0fce713dc5ea7876040516104ae9190610c22565b60405180910390a250505050505050565b6104c76109f6565b6104d05f610a7d565b565b6104da6109f6565b6104e26107fd565b60035442101561051e576040517ffdad952a00000000000000000000000000000000000000000000000000000000815260040160405180910390fd5b5f60025f9054906101000a900473ffffffffffffffffffffffffffffffffffffffff1673ffffffffffffffffffffffffffffffffffffffff166370a08231306040518263ffffffff1660e01b81526004016105799190610d36565b602060405180830381865afa158015610594573d5f5f3e3d5ffd5b505050506040513d601f19601f820116820180604052508101906105b89190610fa9565b90505f81036105f3576040517f0f3f861000000000000000000000000000000000000000000000000000000000815260040160405180910390fd5b6106466105fe61069f565b8260025f9054906101000a900473ffffffffffffffffffffffffffffffffffffffff1673ffffffffffffffffffffffffffffffffffffffff1661096e9092919063ffffffff16565b3373ffffffffffffffffffffffffffffffffffffffff167f6352c5382c4a4578e712449ca65e83cdb392d045dfcf1cad9615189db2da244b8260405161068c9190610c22565b60405180910390a25061069d6109ed565b565b5f5f5f9054906101000a900473ffffffffffffffffffffffffffffffffffffffff16905090565b60035481565b6106d4610be0565b60055f8373ffffffffffffffffffffffffffffffffffffffff1673ffffffffffffffffffffffffffffffffffffffff1681526020019081526020015f206040518060a00160405290815f82015481526020016001820154815260200160028201548152602001600382015481526020016004820154815250509050919050565b61075c6109f6565b5f73ffffffffffffffffffffffffffffffffffffffff168173ffffffffffffffffffffffffffffffffffffffff16036107cc575f6040517f1e4fbdf70000000000000000000000000000000000000000000000000000000081526004016107c39190610d36565b60405180910390fd5b6107d581610a7d565b50565b60025f9054906101000a900473ffffffffffffffffffffffffffffffffffffffff1681565b600260015403610839576040517f3ee5aeb500000000000000000000000000000000000000000000000000000000815260040160405180910390fd5b6002600181905550565b5f5f60055f8473ffffffffffffffffffffffffffffffffffffffff1673ffffffffffffffffffffffffffffffffffffffff1681526020019081526020015f206040518060a00160405290815f82015481526020016001820154815260200160028201548152602001600382015481526020016004820154815250509050806060015181604001516108d49190610ea9565b42101561090d576040517fbf84d55200000000000000000000000000000000000000000000000000000000815260040160405180910390fd5b5f81604001514261091e9190610fd4565b90505f826080015182845f01516109359190610f54565b61093f9190611034565b90505f8360200151826109529190610fd4565b90505f8111610961575f610963565b805b945050505050919050565b6109e8838473ffffffffffffffffffffffffffffffffffffffff1663a9059cbb85856040516024016109a1929190611064565b604051602081830303815290604052915060e01b6020820180517bffffffffffffffffffffffffffffffffffffffffffffffffffffffff8381831617835250505050610b3e565b505050565b60018081905550565b6109fe610bd9565b73ffffffffffffffffffffffffffffffffffffffff16610a1c61069f565b73ffffffffffffffffffffffffffffffffffffffff1614610a7b57610a3f610bd9565b6040517f118cdaa7000000000000000000000000000000000000000000000000000000008152600401610a729190610d36565b60405180910390fd5b565b5f5f5f9054906101000a900473ffffffffffffffffffffffffffffffffffffffff169050815f5f6101000a81548173ffffffffffffffffffffffffffffffffffffffff021916908373ffffffffffffffffffffffffffffffffffffffff1602179055508173ffffffffffffffffffffffffffffffffffffffff168173ffffffffffffffffffffffffffffffffffffffff167f8be0079c531659141344cd1fd0a4f28419497f9722a3daafe3b4186f6b6457e060405160405180910390a35050565b5f5f60205f8451602086015f885af180610b5d576040513d5f823e3d81fd5b3d92505f519150505f8214610b76576001811415610b91565b5f8473ffffffffffffffffffffffffffffffffffffffff163b145b15610bd357836040517f5274afe7000000000000000000000000000000000000000000000000000000008152600401610bca9190610d36565b60405180910390fd5b50505050565b5f33905090565b6040518060a001604052805f81526020015f81526020015f81526020015f81526020015f81525090565b5f819050919050565b610c1c81610c0a565b82525050565b5f602082019050610c355f830184610c13565b92915050565b5f5ffd5b5f73ffffffffffffffffffffffffffffffffffffffff82169050919050565b5f610c6882610c3f565b9050919050565b610c7881610c5e565b8114610c82575f5ffd5b50565b5f81359050610c9381610c6f565b92915050565b610ca281610c0a565b8114610cac575f5ffd5b50565b5f81359050610cbd81610c99565b92915050565b5f5f5f5f60808587031215610cdb57610cda610c3b565b5b5f610ce887828801610c85565b9450506020610cf987828801610caf565b9350506040610d0a87828801610caf565b9250506060610d1b87828801610caf565b91505092959194509250565b610d3081610c5e565b82525050565b5f602082019050610d495f830184610d27565b92915050565b5f60208284031215610d6457610d63610c3b565b5b5f610d7184828501610c85565b91505092915050565b610d8381610c0a565b82525050565b60a082015f820151610d9d5f850182610d7a565b506020820151610db06020850182610d7a565b506040820151610dc36040850182610d7a565b506060820151610dd66060850182610d7a565b506080820151610de96080850182610d7a565b50505050565b5f60a082019050610e025f830184610d89565b92915050565b5f819050919050565b5f610e2b610e26610e2184610c3f565b610e08565b610c3f565b9050919050565b5f610e3c82610e11565b9050919050565b5f610e4d82610e32565b9050919050565b610e5d81610e43565b82525050565b5f602082019050610e765f830184610e54565b92915050565b7f4e487b71000000000000000000000000000000000000000000000000000000005f52601160045260245ffd5b5f610eb382610c0a565b9150610ebe83610c0a565b9250828201905080821115610ed657610ed5610e7c565b5b92915050565b5f82825260208201905092915050565b7f56657374696e67207363686564756c6520616c726561647920736574000000005f82015250565b5f610f20601c83610edc565b9150610f2b82610eec565b602082019050919050565b5f6020820190508181035f830152610f4d81610f14565b9050919050565b5f610f5e82610c0a565b9150610f6983610c0a565b9250828202610f7781610c0a565b91508282048414831517610f8e57610f8d610e7c565b5b5092915050565b5f81519050610fa381610c99565b92915050565b5f60208284031215610fbe57610fbd610c3b565b5b5f610fcb84828501610f95565b91505092915050565b5f610fde82610c0a565b9150610fe983610c0a565b925082820390508181111561100157611000610e7c565b5b92915050565b7f4e487b71000000000000000000000000000000000000000000000000000000005f52601260045260245ffd5b5f61103e82610c0a565b915061104983610c0a565b92508261105957611058611007565b5b828204905092915050565b5f6040820190506110775f830185610d27565b6110846020830184610c13565b939250505056fea2646970667358221220155d7677c2224dc1e2450711080df30eb4c59b8fa47eb28191a22a0bf07a362664736f6c634300081c0033","linkReferences":{}},"methodIdentifiers":{"claimTime()":"27b3bf11","claimTokens()":"48c54b9d","claimingWindowEndTime()":"92de5bd5","getVestingSchedule(address)":"9f829063","owner()":"8da5cb5b","renounceOwnership()":"715018a6","setVestingSchedule(address,uint256,uint256,uint256)":"59f3a97d","token()":"fc0c546a","transferOwnership(address)":"f2fde38b","withdrawRemainingTokens()":"8afbf669"},"id":32}