{
  "_format": "hh-sol-artifact-1",
  "contractName": "MyNFT",
  "sourceName": "contracts/simpleNFT.sol",
  "abi": [
    {
      "inputs": [],
      "stateMutability": "nonpayable",
      "type": "constructor"
    },
    {
      "inputs": [
        {
          "internalType": "address",
          "name": "sender",
          "type": "address"
        },
        {
          "internalType": "uint256",
          "name": "tokenId",
          "type": "uint256"
        },
        {
          "internalType": "address",
          "name": "owner",
          "type": "address"
        }
      ],
      "name": "ERC721IncorrectOwner",
      "type": "error"
    },
    {
      "inputs": [
        {
          "internalType": "address",
          "name": "operator",
          "type": "address"
        },
        {
          "internalType": "uint256",
          "name": "tokenId",
          "type": "uint256"
        }
      ],
      "name": "ERC721InsufficientApproval",
      "type": "error"
    },
    {
      "inputs": [
        {
          "internalType": "address",
          "name": "approver",
          "type": "address"
        }
      ],
      "name": "ERC721InvalidApprover",
      "type": "error"
    },
    {
      "inputs": [
        {
          "internalType": "address",
          "name": "operator",
          "type": "address"
        }
      ],
      "name": "ERC721InvalidOperator",
      "type": "error"
    },
    {
      "inputs": [
        {
          "internalType": "address",
          "name": "owner",
          "type": "address"
        }
      ],
      "name": "ERC721InvalidOwner",
      "type": "error"
    },
    {
      "inputs": [
        {
          "internalType": "address",
          "name": "receiver",
          "type": "address"
        }
      ],
      "name": "ERC721InvalidReceiver",
      "type": "error"
    },
    {
      "inputs": [
        {
          "internalType": "address",
          "name": "sender",
          "type": "address"
        }
      ],
      "name": "ERC721InvalidSender",
      "type": "error"
    },
    {
      "inputs": [
        {
          "internalType": "uint256",
          "name": "tokenId",
          "type": "uint256"
        }
      ],
      "name": "ERC721NonexistentToken",
      "type": "error"
    },
    {
      "inputs": [
        {
          "internalType": "address",
          "name": "owner",
          "type": "address"
        }
      ],
      "name": "OwnableInvalidOwner",
      "type": "error"
    },
    {
      "inputs": [
        {
          "internalType": "address",
          "name": "account",
          "type": "address"
        }
      ],
      "name": "OwnableUnauthorizedAccount",
      "type": "error"
    },
    {
      "inputs": [],
      "name": "ReentrancyGuardReentrantCall",
      "type": "error"
    },
    {
      "anonymous": false,
      "inputs": [
        {
          "indexed": true,
          "internalType": "address",
          "name": "owner",
          "type": "address"
        },
        {
          "indexed": true,
          "internalType": "address",
          "name": "approved",
          "type": "address"
        },
        {
          "indexed": true,
          "internalType": "uint256",
          "name": "tokenId",
          "type": "uint256"
        }
      ],
      "name": "Approval",
      "type": "event"
    },
    {
      "anonymous": false,
      "inputs": [
        {
          "indexed": true,
          "internalType": "address",
          "name": "owner",
          "type": "address"
        },
        {
          "indexed": true,
          "internalType": "address",
          "name": "operator",
          "type": "address"
        },
        {
          "indexed": false,
          "internalType": "bool",
          "name": "approved",
          "type": "bool"
        }
      ],
      "name": "ApprovalForAll",
      "type": "event"
    },
    {
      "anonymous": false,
      "inputs": [
        {
          "indexed": false,
          "internalType": "uint256",
          "name": "_fromTokenId",
          "type": "uint256"
        },
        {
          "indexed": false,
          "internalType": "uint256",
          "name": "_toTokenId",
          "type": "uint256"
        }
      ],
      "name": "BatchMetadataUpdate",
      "type": "event"
    },
    {
      "anonymous": false,
      "inputs": [
        {
          "indexed": false,
          "internalType": "uint256",
          "name": "_tokenId",
          "type": "uint256"
        }
      ],
      "name": "MetadataUpdate",
      "type": "event"
    },
    {
      "anonymous": false,
      "inputs": [
        {
          "indexed": false,
          "internalType": "string",
          "name": "tokenURI",
          "type": "string"
        },
        {
          "indexed": false,
          "internalType": "uint256",
          "name": "tokenID",
          "type": "uint256"
        }
      ],
      "name": "Minted",
      "type": "event"
    },
    {
      "anonymous": false,
      "inputs": [
        {
          "indexed": true,
          "internalType": "address",
          "name": "previousOwner",
          "type": "address"
        },
        {
          "indexed": true,
          "internalType": "address",
          "name": "newOwner",
          "type": "address"
        }
      ],
      "name": "OwnershipTransferred",
      "type": "event"
    },
    {
      "anonymous": false,
      "inputs": [
        {
          "indexed": true,
          "internalType": "address",
          "name": "from",
          "type": "address"
        },
        {
          "indexed": true,
          "internalType": "address",
          "name": "to",
          "type": "address"
        },
        {
          "indexed": true,
          "internalType": "uint256",
          "name": "tokenId",
          "type": "uint256"
        }
      ],
      "name": "Transfer",
      "type": "event"
    },
    {
      "anonymous": false,
      "inputs": [
        {
          "indexed": false,
          "internalType": "address",
          "name": "owner",
          "type": "address"
        },
        {
          "indexed": false,
          "internalType": "uint256",
          "name": "amount",
          "type": "uint256"
        }
      ],
      "name": "Withdrawn",
      "type": "event"
    },
    {
      "inputs": [
        {
          "internalType": "address",
          "name": "to",
          "type": "address"
        },
        {
          "internalType": "uint256",
          "name": "tokenId",
          "type": "uint256"
        }
      ],
      "name": "approve",
      "outputs": [],
      "stateMutability": "nonpayable",
      "type": "function"
    },
    {
      "inputs": [
        {
          "internalType": "address",
          "name": "owner",
          "type": "address"
        }
      ],
      "name": "balanceOf",
      "outputs": [
        {
          "internalType": "uint256",
          "name": "",
          "type": "uint256"
        }
      ],
      "stateMutability": "view",
      "type": "function"
    },
    {
      "inputs": [
        {
          "internalType": "uint256",
          "name": "tokenId",
          "type": "uint256"
        }
      ],
      "name": "getApproved",
      "outputs": [
        {
          "internalType": "address",
          "name": "",
          "type": "address"
        }
      ],
      "stateMutability": "view",
      "type": "function"
    },
    {
      "inputs": [
        {
          "internalType": "address",
          "name": "owner",
          "type": "address"
        },
        {
          "internalType": "address",
          "name": "operator",
          "type": "address"
        }
      ],
      "name": "isApprovedForAll",
      "outputs": [
        {
          "internalType": "bool",
          "name": "",
          "type": "bool"
        }
      ],
      "stateMutability": "view",
      "type": "function"
    },
    {
      "inputs": [
        {
          "internalType": "string",
          "name": "_tokenURI",
          "type": "string"
        }
      ],
      "name": "mintNFT",
      "outputs": [
        {
          "internalType": "uint256",
          "name": "",
          "type": "uint256"
        }
      ],
      "stateMutability": "payable",
      "type": "function"
    },
    {
      "inputs": [],
      "name": "mintingFee",
      "outputs": [
        {
          "internalType": "uint256",
          "name": "",
          "type": "uint256"
        }
      ],
      "stateMutability": "view",
      "type": "function"
    },
    {
      "inputs": [],
      "name": "name",
      "outputs": [
        {
          "internalType": "string",
          "name": "",
          "type": "string"
        }
      ],
      "stateMutability": "view",
      "type": "function"
    },
    {
      "inputs": [],
      "name": "owner",
      "outputs": [
        {
          "internalType": "address",
          "name": "",
          "type": "address"
        }
      ],
      "stateMutability": "view",
      "type": "function"
    },
    {
      "inputs": [
        {
          "internalType": "uint256",
          "name": "tokenId",
          "type": "uint256"
        }
      ],
      "name": "ownerOf",
      "outputs": [
        {
          "internalType": "address",
          "name": "",
          "type": "address"
        }
      ],
      "stateMutability": "view",
      "type": "function"
    },
    {
      "inputs": [],
      "name": "renounceOwnership",
      "outputs": [],
      "stateMutability": "nonpayable",
      "type": "function"
    },
    {
      "inputs": [
        {
          "internalType": "address",
          "name": "from",
          "type": "address"
        },
        {
          "internalType": "address",
          "name": "to",
          "type": "address"
        },
        {
          "internalType": "uint256",
          "name": "tokenId",
          "type": "uint256"
        }
      ],
      "name": "safeTransferFrom",
      "outputs": [],
      "stateMutability": "nonpayable",
      "type": "function"
    },
    {
      "inputs": [
        {
          "internalType": "address",
          "name": "from",
          "type": "address"
        },
        {
          "internalType": "address",
          "name": "to",
          "type": "address"
        },
        {
          "internalType": "uint256",
          "name": "tokenId",
          "type": "uint256"
        },
        {
          "internalType": "bytes",
          "name": "data",
          "type": "bytes"
        }
      ],
      "name": "safeTransferFrom",
      "outputs": [],
      "stateMutability": "nonpayable",
      "type": "function"
    },
    {
      "inputs": [
        {
          "internalType": "address",
          "name": "operator",
          "type": "address"
        },
        {
          "internalType": "bool",
          "name": "approved",
          "type": "bool"
        }
      ],
      "name": "setApprovalForAll",
      "outputs": [],
      "stateMutability": "nonpayable",
      "type": "function"
    },
    {
      "inputs": [
        {
          "internalType": "bytes4",
          "name": "interfaceId",
          "type": "bytes4"
        }
      ],
      "name": "supportsInterface",
      "outputs": [
        {
          "internalType": "bool",
          "name": "",
          "type": "bool"
        }
      ],
      "stateMutability": "view",
      "type": "function"
    },
    {
      "inputs": [],
      "name": "symbol",
      "outputs": [
        {
          "internalType": "string",
          "name": "",
          "type": "string"
        }
      ],
      "stateMutability": "view",
      "type": "function"
    },
    {
      "inputs": [],
      "name": "tokenCounter",
      "outputs": [
        {
          "internalType": "uint256",
          "name": "",
          "type": "uint256"
        }
      ],
      "stateMutability": "view",
      "type": "function"
    },
    {
      "inputs": [
        {
          "internalType": "uint256",
          "name": "tokenId",
          "type": "uint256"
        }
      ],
      "name": "tokenURI",
      "outputs": [
        {
          "internalType": "string",
          "name": "",
          "type": "string"
        }
      ],
      "stateMutability": "view",
      "type": "function"
    },
    {
      "inputs": [
        {
          "internalType": "address",
          "name": "from",
          "type": "address"
        },
        {
          "internalType": "address",
          "name": "to",
          "type": "address"
        },
        {
          "internalType": "uint256",
          "name": "tokenId",
          "type": "uint256"
        }
      ],
      "name": "transferFrom",
      "outputs": [],
      "stateMutability": "nonpayable",
      "type": "function"
    },
    {
      "inputs": [
        {
          "internalType": "address",
          "name": "newOwner",
          "type": "address"
        }
      ],
      "name": "transferOwnership",
      "outputs": [],
      "stateMutability": "nonpayable",
      "type": "function"
    },
    {
      "inputs": [],
      "name": "withdraw",
      "outputs": [],
      "stateMutability": "nonpayable",
      "type": "function"
    }
  ],
  "bytecode": "0x60806040523480156200001157600080fd5b50336040518060400160405280600581526020016441796c617360d81b8152506040518060400160405280600381526020016213505360ea1b81525081600090816200005e9190620001b2565b5060016200006d8282620001b2565b5050506001600160a01b0381166200009f57604051631e4fbdf760e01b81526000600482015260240160405180910390fd5b620000aa81620000bb565b50600160085560006009556200027e565b600780546001600160a01b038381166001600160a01b0319831681179093556040519116919082907f8be0079c531659141344cd1fd0a4f28419497f9722a3daafe3b4186f6b6457e090600090a35050565b634e487b7160e01b600052604160045260246000fd5b600181811c908216806200013857607f821691505b6020821081036200015957634e487b7160e01b600052602260045260246000fd5b50919050565b601f821115620001ad57600081815260208120601f850160051c81016020861015620001885750805b601f850160051c820191505b81811015620001a95782815560010162000194565b5050505b505050565b81516001600160401b03811115620001ce57620001ce6200010d565b620001e681620001df845462000123565b846200015f565b602080601f8311600181146200021e5760008415620002055750858301515b600019600386901b1c1916600185901b178555620001a9565b600085815260208120601f198616915b828110156200024f578886015182559484019460019091019084016200022e565b50858210156200026e5787850151600019600388901b60f8161c191681555b5050505050600190811b01905550565b6117c2806200028e6000396000f3fe60806040526004361061011f5760003560e01c8063715018a6116100a0578063c87b56dd11610064578063c87b56dd1461031b578063d082e3811461033b578063e985e9c514610351578063f2fde38b14610371578063fb37e8831461039157600080fd5b8063715018a6146102935780638da5cb5b146102a857806395d89b41146102c6578063a22cb465146102db578063b88d4fde146102fb57600080fd5b80633ccfd60b116100e75780633ccfd60b146101f557806342842e0e1461020a5780635a64ad951461022a5780636352211e1461025357806370a082311461027357600080fd5b806301ffc9a71461012457806306fdde0314610159578063081812fc1461017b578063095ea7b3146101b357806323b872dd146101d5575b600080fd5b34801561013057600080fd5b5061014461013f36600461128f565b6103a4565b60405190151581526020015b60405180910390f35b34801561016557600080fd5b5061016e6103cf565b60405161015091906112fc565b34801561018757600080fd5b5061019b61019636600461130f565b610461565b6040516001600160a01b039091168152602001610150565b3480156101bf57600080fd5b506101d36101ce36600461133f565b61048a565b005b3480156101e157600080fd5b506101d36101f0366004611369565b610499565b34801561020157600080fd5b506101d3610529565b34801561021657600080fd5b506101d3610225366004611369565b610646565b34801561023657600080fd5b50610245662386f26fc1000081565b604051908152602001610150565b34801561025f57600080fd5b5061019b61026e36600461130f565b610666565b34801561027f57600080fd5b5061024561028e3660046113a5565b610671565b34801561029f57600080fd5b506101d36106b9565b3480156102b457600080fd5b506007546001600160a01b031661019b565b3480156102d257600080fd5b5061016e6106cb565b3480156102e757600080fd5b506101d36102f63660046113c0565b6106da565b34801561030757600080fd5b506101d3610316366004611488565b6106e5565b34801561032757600080fd5b5061016e61033636600461130f565b6106fd565b34801561034757600080fd5b5061024560095481565b34801561035d57600080fd5b5061014461036c366004611504565b61080e565b34801561037d57600080fd5b506101d361038c3660046113a5565b61083c565b61024561039f366004611537565b61087a565b60006001600160e01b03198216632483248360e11b14806103c957506103c9826109e3565b92915050565b6060600080546103de90611580565b80601f016020809104026020016040519081016040528092919081815260200182805461040a90611580565b80156104575780601f1061042c57610100808354040283529160200191610457565b820191906000526020600020905b81548152906001019060200180831161043a57829003601f168201915b5050505050905090565b600061046c82610a33565b506000828152600460205260409020546001600160a01b03166103c9565b610495828233610a6c565b5050565b6001600160a01b0382166104c857604051633250574960e11b8152600060048201526024015b60405180910390fd5b60006104d5838333610a79565b9050836001600160a01b0316816001600160a01b031614610523576040516364283d7b60e01b81526001600160a01b03808616600483015260248201849052821660448201526064016104bf565b50505050565b610531610b72565b610539610b9c565b47600061054e6007546001600160a01b031690565b6001600160a01b03168260405160006040518083038185875af1925050503d8060008114610598576040519150601f19603f3d011682016040523d82523d6000602084013e61059d565b606091505b50509050806105e45760405162461bcd60e51b8152602060048201526013602482015272115512081d1c985b9cd9995c8819985a5b1959606a1b60448201526064016104bf565b7f7084f5476618d8e60b11ef0d7d3f06914655adb8793e28ff7f018d4c76d505d56106176007546001600160a01b031690565b604080516001600160a01b039092168252602082018590520160405180910390a150506106446001600855565b565b610661838383604051806020016040528060008152506106e5565b505050565b60006103c982610a33565b60006001600160a01b03821661069d576040516322718ad960e21b8152600060048201526024016104bf565b506001600160a01b031660009081526003602052604090205490565b6106c1610b9c565b6106446000610bc9565b6060600180546103de90611580565b610495338383610c1b565b6106f0848484610499565b6105233385858585610cba565b606061070882610a33565b506000828152600660205260408120805461072290611580565b80601f016020809104026020016040519081016040528092919081815260200182805461074e90611580565b801561079b5780601f106107705761010080835404028352916020019161079b565b820191906000526020600020905b81548152906001019060200180831161077e57829003601f168201915b5050505050905060006107b960408051602081019091526000815290565b905080516000036107cb575092915050565b8151156107fd5780826040516020016107e59291906115ba565b60405160208183030381529060405292505050919050565b61080684610de5565b949350505050565b6001600160a01b03918216600090815260056020908152604080832093909416825291909152205460ff1690565b610844610b9c565b6001600160a01b03811661086e57604051631e4fbdf760e01b8152600060048201526024016104bf565b61087781610bc9565b50565b6000610884610b72565b662386f26fc100003410156108d45760405162461bcd60e51b8152602060048201526016602482015275139bdd08195b9bdd59da08115512081d1bc81b5a5b9d60521b60448201526064016104bf565b60098054600181019091556108e93382610e5a565b6108f38184610e74565b6000610906662386f26fc10000346115e9565b9050801561099857604051600090339083908381818185875af1925050503d8060008114610950576040519150601f19603f3d011682016040523d82523d6000602084013e610955565b606091505b50509050806109965760405162461bcd60e51b815260206004820152600d60248201526c1499599d5b990819985a5b1959609a1b60448201526064016104bf565b505b7f84fedafd9490d60ff476d007409fc8709ce33b506d702cddbf1e37b1dc5fc2ef84836040516109c992919061160a565b60405180910390a15090506109de6001600855565b919050565b60006001600160e01b031982166380ac58cd60e01b1480610a1457506001600160e01b03198216635b5e139f60e01b145b806103c957506301ffc9a760e01b6001600160e01b03198316146103c9565b6000818152600260205260408120546001600160a01b0316806103c957604051637e27328960e01b8152600481018490526024016104bf565b6106618383836001610ec4565b6000828152600260205260408120546001600160a01b0390811690831615610aa657610aa6818486610fca565b6001600160a01b03811615610ae457610ac3600085600080610ec4565b6001600160a01b038116600090815260036020526040902080546000190190555b6001600160a01b03851615610b13576001600160a01b0385166000908152600360205260409020805460010190555b60008481526002602052604080822080546001600160a01b0319166001600160a01b0389811691821790925591518793918516917fddf252ad1be2c89b69c2b068fc378daa952ba7f163c4a11628f55a4df523b3ef91a4949350505050565b600260085403610b9557604051633ee5aeb560e01b815260040160405180910390fd5b6002600855565b6007546001600160a01b031633146106445760405163118cdaa760e01b81523360048201526024016104bf565b600780546001600160a01b038381166001600160a01b0319831681179093556040519116919082907f8be0079c531659141344cd1fd0a4f28419497f9722a3daafe3b4186f6b6457e090600090a35050565b6001600160a01b038216610c4d57604051630b61174360e31b81526001600160a01b03831660048201526024016104bf565b6001600160a01b03838116600081815260056020908152604080832094871680845294825291829020805460ff191686151590811790915591519182527f17307eab39ab6107e8899845ad3d59bd9653f200f220920489ca2b5937696c31910160405180910390a3505050565b6001600160a01b0383163b15610dde57604051630a85bd0160e11b81526001600160a01b0384169063150b7a0290610cfc90889088908790879060040161162c565b6020604051808303816000875af1925050508015610d37575060408051601f3d908101601f19168201909252610d3491810190611669565b60015b610da0573d808015610d65576040519150601f19603f3d011682016040523d82523d6000602084013e610d6a565b606091505b508051600003610d9857604051633250574960e11b81526001600160a01b03851660048201526024016104bf565b805181602001fd5b6001600160e01b03198116630a85bd0160e11b14610ddc57604051633250574960e11b81526001600160a01b03851660048201526024016104bf565b505b5050505050565b6060610df082610a33565b506000610e0860408051602081019091526000815290565b90506000815111610e285760405180602001604052806000815250610e53565b80610e328461102e565b604051602001610e439291906115ba565b6040516020818303038152906040525b9392505050565b6104958282604051806020016040528060008152506110c1565b6000828152600660205260409020610e8c82826116cc565b506040518281527ff8e1a15aba9398e019f0b49df1a4fde98ee17ae345cb5f6b5e2c27f5033e8ce79060200160405180910390a15050565b8080610ed857506001600160a01b03821615155b15610f9a576000610ee884610a33565b90506001600160a01b03831615801590610f145750826001600160a01b0316816001600160a01b031614155b8015610f275750610f25818461080e565b155b15610f505760405163a9fbf51f60e01b81526001600160a01b03841660048201526024016104bf565b8115610f985783856001600160a01b0316826001600160a01b03167f8c5be1e5ebec7d5bd14f71427d1e84f3dd0314c0f7b2291e5b200ac8c7c3b92560405160405180910390a45b505b5050600090815260046020526040902080546001600160a01b0319166001600160a01b0392909216919091179055565b610fd58383836110d9565b610661576001600160a01b03831661100357604051637e27328960e01b8152600481018290526024016104bf565b60405163177e802f60e01b81526001600160a01b0383166004820152602481018290526044016104bf565b6060600061103b8361113c565b600101905060008167ffffffffffffffff81111561105b5761105b6113fc565b6040519080825280601f01601f191660200182016040528015611085576020820181803683370190505b5090508181016020015b600019016f181899199a1a9b1b9c1cb0b131b232b360811b600a86061a8153600a850494508461108f57509392505050565b6110cb8383611214565b610661336000858585610cba565b60006001600160a01b038316158015906108065750826001600160a01b0316846001600160a01b031614806111135750611113848461080e565b806108065750506000908152600460205260409020546001600160a01b03908116911614919050565b60008072184f03e93ff9f4daa797ed6e38ed64bf6a1f0160401b831061117b5772184f03e93ff9f4daa797ed6e38ed64bf6a1f0160401b830492506040015b6d04ee2d6d415b85acef810000000083106111a7576d04ee2d6d415b85acef8100000000830492506020015b662386f26fc1000083106111c557662386f26fc10000830492506010015b6305f5e10083106111dd576305f5e100830492506008015b61271083106111f157612710830492506004015b60648310611203576064830492506002015b600a83106103c95760010192915050565b6001600160a01b03821661123e57604051633250574960e11b8152600060048201526024016104bf565b600061124c83836000610a79565b90506001600160a01b03811615610661576040516339e3563760e11b8152600060048201526024016104bf565b6001600160e01b03198116811461087757600080fd5b6000602082840312156112a157600080fd5b8135610e5381611279565b60005b838110156112c75781810151838201526020016112af565b50506000910152565b600081518084526112e88160208601602086016112ac565b601f01601f19169290920160200192915050565b602081526000610e5360208301846112d0565b60006020828403121561132157600080fd5b5035919050565b80356001600160a01b03811681146109de57600080fd5b6000806040838503121561135257600080fd5b61135b83611328565b946020939093013593505050565b60008060006060848603121561137e57600080fd5b61138784611328565b925061139560208501611328565b9150604084013590509250925092565b6000602082840312156113b757600080fd5b610e5382611328565b600080604083850312156113d357600080fd5b6113dc83611328565b9150602083013580151581146113f157600080fd5b809150509250929050565b634e487b7160e01b600052604160045260246000fd5b600067ffffffffffffffff8084111561142d5761142d6113fc565b604051601f8501601f19908116603f01168101908282118183101715611455576114556113fc565b8160405280935085815286868601111561146e57600080fd5b858560208301376000602087830101525050509392505050565b6000806000806080858703121561149e57600080fd5b6114a785611328565b93506114b560208601611328565b925060408501359150606085013567ffffffffffffffff8111156114d857600080fd5b8501601f810187136114e957600080fd5b6114f887823560208401611412565b91505092959194509250565b6000806040838503121561151757600080fd5b61152083611328565b915061152e60208401611328565b90509250929050565b60006020828403121561154957600080fd5b813567ffffffffffffffff81111561156057600080fd5b8201601f8101841361157157600080fd5b61080684823560208401611412565b600181811c9082168061159457607f821691505b6020821081036115b457634e487b7160e01b600052602260045260246000fd5b50919050565b600083516115cc8184602088016112ac565b8351908301906115e08183602088016112ac565b01949350505050565b818103818111156103c957634e487b7160e01b600052601160045260246000fd5b60408152600061161d60408301856112d0565b90508260208301529392505050565b6001600160a01b038581168252841660208201526040810183905260806060820181905260009061165f908301846112d0565b9695505050505050565b60006020828403121561167b57600080fd5b8151610e5381611279565b601f82111561066157600081815260208120601f850160051c810160208610156116ad5750805b601f850160051c820191505b81811015610ddc578281556001016116b9565b815167ffffffffffffffff8111156116e6576116e66113fc565b6116fa816116f48454611580565b84611686565b602080601f83116001811461172f57600084156117175750858301515b600019600386901b1c1916600185901b178555610ddc565b600085815260208120601f198616915b8281101561175e5788860151825594840194600190910190840161173f565b508582101561177c5787850151600019600388901b60f8161c191681555b5050505050600190811b0190555056fea26469706673582212203899af6b9f5b90e1d7765eaa5ae0e428373ae7f58ac383d7a6b9e5d40b29ca9264736f6c63430008150033",
  "linkReferences": {},
  "deployedLinkReferences": {}
}