{"abi":[{"type":"function","name":"createTokenSale","inputs":[{"name":"_vestingContract","type":"address","internalType":"contract vesting"},{"name":"_cliffDuration","type":"uint256","internalType":"uint256"},{"name":"_vestingDuration","type":"uint256","internalType":"uint256"},{"name":"_tokenAddress","type":"address","internalType":"contract IERC20"},{"name":"_price","type":"uint256","internalType":"uint256"},{"name":"_startTime","type":"uint256","internalType":"uint256"},{"name":"_endTime","type":"uint256","internalType":"uint256"},{"name":"_softCap","type":"uint256","internalType":"uint256"},{"name":"_hardCap","type":"uint256","internalType":"uint256"},{"name":"_saleType","type":"uint8","internalType":"enum tokenSale.SaleType"},{"name":"_totalTokensForSale","type":"uint256","internalType":"uint256"}],"outputs":[],"stateMutability":"nonpayable"},{"type":"function","name":"getAllTokenSales","inputs":[],"outputs":[{"name":"","type":"address[]","internalType":"address[]"}],"stateMutability":"view"},{"type":"function","name":"owner","inputs":[],"outputs":[{"name":"","type":"address","internalType":"address"}],"stateMutability":"view"},{"type":"function","name":"renounceOwnership","inputs":[],"outputs":[],"stateMutability":"nonpayable"},{"type":"function","name":"tokenSales","inputs":[{"name":"","type":"uint256","internalType":"uint256"}],"outputs":[{"name":"","type":"address","internalType":"address"}],"stateMutability":"view"},{"type":"function","name":"transferOwnership","inputs":[{"name":"newOwner","type":"address","internalType":"address"}],"outputs":[],"stateMutability":"nonpayable"},{"type":"event","name":"OwnershipTransferred","inputs":[{"name":"previousOwner","type":"address","indexed":true,"internalType":"address"},{"name":"newOwner","type":"address","indexed":true,"internalType":"address"}],"anonymous":false},{"type":"event","name":"TokenSaleCreated","inputs":[{"name":"tokenSaleAddress","type":"address","indexed":true,"internalType":"address"}],"anonymous":false},{"type":"error","name":"OwnableInvalidOwner","inputs":[{"name":"owner","type":"address","internalType":"address"}]},{"type":"error","name":"OwnableUnauthorizedAccount","inputs":[{"name":"account","type":"address","internalType":"address"}]}],"bytecode":{"object":"0x608060405234801561000f575f5ffd5b50335f73ffffffffffffffffffffffffffffffffffffffff168173ffffffffffffffffffffffffffffffffffffffff1603610081575f6040517f1e4fbdf70000000000000000000000000000000000000000000000000000000081526004016100789190610196565b60405180910390fd5b6100908161009660201b60201c565b506101af565b5f5f5f9054906101000a900473ffffffffffffffffffffffffffffffffffffffff169050815f5f6101000a81548173ffffffffffffffffffffffffffffffffffffffff021916908373ffffffffffffffffffffffffffffffffffffffff1602179055508173ffffffffffffffffffffffffffffffffffffffff168173ffffffffffffffffffffffffffffffffffffffff167f8be0079c531659141344cd1fd0a4f28419497f9722a3daafe3b4186f6b6457e060405160405180910390a35050565b5f73ffffffffffffffffffffffffffffffffffffffff82169050919050565b5f61018082610157565b9050919050565b61019081610176565b82525050565b5f6020820190506101a95f830184610187565b92915050565b61261f806101bc5f395ff3fe608060405234801561000f575f5ffd5b5060043610610060575f3560e01c806345cf084b14610064578063715018a6146100945780638da5cb5b1461009e578063a7546439146100bc578063f2fde38b146100d8578063f5d8b4ea146100f4575b5f5ffd5b61007e6004803603810190610079919061052a565b610112565b60405161008b9190610594565b60405180910390f35b61009c61014d565b005b6100a6610160565b6040516100b39190610594565b60405180910390f35b6100d660048036038101906100d19190610646565b610187565b005b6100f260048036038101906100ed919061075d565b610288565b005b6100fc61030c565b604051610109919061083f565b60405180910390f35b60018181548110610121575f80fd5b905f5260205f20015f915054906101000a900473ffffffffffffffffffffffffffffffffffffffff1681565b610155610397565b61015e5f61041e565b565b5f5f5f9054906101000a900473ffffffffffffffffffffffffffffffffffffffff16905090565b61018f610397565b5f8b8b8b8b8b8b8b8b8b8b8b6040516101a7906104e6565b6101bb9b9a9998979695949392919061095c565b604051809103905ff0801580156101d4573d5f5f3e3d5ffd5b509050600181908060018154018082558091505060019003905f5260205f20015f9091909190916101000a81548173ffffffffffffffffffffffffffffffffffffffff021916908373ffffffffffffffffffffffffffffffffffffffff1602179055508073ffffffffffffffffffffffffffffffffffffffff167f384baf7cfea1aac6ce65aa150f746c32dd020ef4ed2d1c12dece514341f48f0660405160405180910390a2505050505050505050505050565b610290610397565b5f73ffffffffffffffffffffffffffffffffffffffff168173ffffffffffffffffffffffffffffffffffffffff1603610300575f6040517f1e4fbdf70000000000000000000000000000000000000000000000000000000081526004016102f79190610594565b60405180910390fd5b6103098161041e565b50565b6060600180548060200260200160405190810160405280929190818152602001828054801561038d57602002820191905f5260205f20905b815f9054906101000a900473ffffffffffffffffffffffffffffffffffffffff1673ffffffffffffffffffffffffffffffffffffffff1681526020019060010190808311610344575b5050505050905090565b61039f6104df565b73ffffffffffffffffffffffffffffffffffffffff166103bd610160565b73ffffffffffffffffffffffffffffffffffffffff161461041c576103e06104df565b6040517f118cdaa70000000000000000000000000000000000000000000000000000000081526004016104139190610594565b60405180910390fd5b565b5f5f5f9054906101000a900473ffffffffffffffffffffffffffffffffffffffff169050815f5f6101000a81548173ffffffffffffffffffffffffffffffffffffffff021916908373ffffffffffffffffffffffffffffffffffffffff1602179055508173ffffffffffffffffffffffffffffffffffffffff168173ffffffffffffffffffffffffffffffffffffffff167f8be0079c531659141344cd1fd0a4f28419497f9722a3daafe3b4186f6b6457e060405160405180910390a35050565b5f33905090565b611be480610a0683390190565b5f5ffd5b5f819050919050565b610509816104f7565b8114610513575f5ffd5b50565b5f8135905061052481610500565b92915050565b5f6020828403121561053f5761053e6104f3565b5b5f61054c84828501610516565b91505092915050565b5f73ffffffffffffffffffffffffffffffffffffffff82169050919050565b5f61057e82610555565b9050919050565b61058e81610574565b82525050565b5f6020820190506105a75f830184610585565b92915050565b5f6105b782610574565b9050919050565b6105c7816105ad565b81146105d1575f5ffd5b50565b5f813590506105e2816105be565b92915050565b5f6105f282610574565b9050919050565b610602816105e8565b811461060c575f5ffd5b50565b5f8135905061061d816105f9565b92915050565b6003811061062f575f5ffd5b50565b5f8135905061064081610623565b92915050565b5f5f5f5f5f5f5f5f5f5f5f6101608c8e031215610666576106656104f3565b5b5f6106738e828f016105d4565b9b505060206106848e828f01610516565b9a505060406106958e828f01610516565b99505060606106a68e828f0161060f565b98505060806106b78e828f01610516565b97505060a06106c88e828f01610516565b96505060c06106d98e828f01610516565b95505060e06106ea8e828f01610516565b9450506101006106fc8e828f01610516565b93505061012061070e8e828f01610632565b9250506101406107208e828f01610516565b9150509295989b509295989b9093969950565b61073c81610574565b8114610746575f5ffd5b50565b5f8135905061075781610733565b92915050565b5f60208284031215610772576107716104f3565b5b5f61077f84828501610749565b91505092915050565b5f81519050919050565b5f82825260208201905092915050565b5f819050602082019050919050565b6107ba81610574565b82525050565b5f6107cb83836107b1565b60208301905092915050565b5f602082019050919050565b5f6107ed82610788565b6107f78185610792565b9350610802836107a2565b805f5b8381101561083257815161081988826107c0565b9750610824836107d7565b925050600181019050610805565b5085935050505092915050565b5f6020820190508181035f83015261085781846107e3565b905092915050565b5f819050919050565b5f61088261087d61087884610555565b61085f565b610555565b9050919050565b5f61089382610868565b9050919050565b5f6108a482610889565b9050919050565b6108b48161089a565b82525050565b6108c3816104f7565b82525050565b5f6108d382610889565b9050919050565b6108e3816108c9565b82525050565b7f4e487b71000000000000000000000000000000000000000000000000000000005f52602160045260245ffd5b60038110610927576109266108e9565b5b50565b5f81905061093782610916565b919050565b5f6109468261092a565b9050919050565b6109568161093c565b82525050565b5f610160820190506109705f83018e6108ab565b61097d602083018d6108ba565b61098a604083018c6108ba565b610997606083018b6108da565b6109a4608083018a6108ba565b6109b160a08301896108ba565b6109be60c08301886108ba565b6109cb60e08301876108ba565b6109d96101008301866108ba565b6109e761012083018561094d565b6109f56101408301846108ba565b9c9b50505050505050505050505056fe608060405234801561000f575f5ffd5b50604051611be4380380611be48339818101604052810190610031919061036c565b335f73ffffffffffffffffffffffffffffffffffffffff168173ffffffffffffffffffffffffffffffffffffffff16036100a2575f6040517f1e4fbdf70000000000000000000000000000000000000000000000000000000081526004016100999190610468565b60405180910390fd5b6100b1816101ab60201b60201c565b50600180819055508a600a5f6101000a81548173ffffffffffffffffffffffffffffffffffffffff021916908373ffffffffffffffffffffffffffffffffffffffff160217905550866002819055508560058190555084600681905550836003819055508260048190555081600f5f6101000a81548160ff021916908360028111156101405761013f610481565b5b021790555087600f60016101000a81548173ffffffffffffffffffffffffffffffffffffffff021916908373ffffffffffffffffffffffffffffffffffffffff1602179055508060098190555089600b8190555088600c8190555050505050505050505050506104ae565b5f5f5f9054906101000a900473ffffffffffffffffffffffffffffffffffffffff169050815f5f6101000a81548173ffffffffffffffffffffffffffffffffffffffff021916908373ffffffffffffffffffffffffffffffffffffffff1602179055508173ffffffffffffffffffffffffffffffffffffffff168173ffffffffffffffffffffffffffffffffffffffff167f8be0079c531659141344cd1fd0a4f28419497f9722a3daafe3b4186f6b6457e060405160405180910390a35050565b5f5ffd5b5f73ffffffffffffffffffffffffffffffffffffffff82169050919050565b5f61029982610270565b9050919050565b5f6102aa8261028f565b9050919050565b6102ba816102a0565b81146102c4575f5ffd5b50565b5f815190506102d5816102b1565b92915050565b5f819050919050565b6102ed816102db565b81146102f7575f5ffd5b50565b5f81519050610308816102e4565b92915050565b5f6103188261028f565b9050919050565b6103288161030e565b8114610332575f5ffd5b50565b5f815190506103438161031f565b92915050565b60038110610355575f5ffd5b50565b5f8151905061036681610349565b92915050565b5f5f5f5f5f5f5f5f5f5f5f6101608c8e03121561038c5761038b61026c565b5b5f6103998e828f016102c7565b9b505060206103aa8e828f016102fa565b9a505060406103bb8e828f016102fa565b99505060606103cc8e828f01610335565b98505060806103dd8e828f016102fa565b97505060a06103ee8e828f016102fa565b96505060c06103ff8e828f016102fa565b95505060e06104108e828f016102fa565b9450506101006104228e828f016102fa565b9350506101206104348e828f01610358565b9250506101406104468e828f016102fa565b9150509295989b509295989b9093969950565b6104628161028f565b82525050565b5f60208201905061047b5f830184610459565b92915050565b7f4e487b71000000000000000000000000000000000000000000000000000000005f52602160045260245ffd5b611729806104bb5f395ff3fe6080604052600436106100a6575f3560e01c806360219c7b1161006357806360219c7b1461016a578063715018a6146101945780638da5cb5b146101aa578063a4821719146101d4578063d85349f7146101de578063f2fde38b14610208576100a6565b80631514617e146100aa57806324600fc3146100d45780633a45e6fd146100ea57806348c54b9d146101005780635bcc7928146101165780635e6f604514610140575b5f5ffd5b3480156100b5575f5ffd5b506100be610230565b6040516100cb91906111b1565b60405180910390f35b3480156100df575f5ffd5b506100e8610236565b005b3480156100f5575f5ffd5b506100fe6103cd565b005b34801561010b575f5ffd5b50610114610683565b005b348015610121575f5ffd5b5061012a6109f6565b604051610137919061123d565b60405180910390f35b34801561014b575f5ffd5b50610154610a08565b60405161016191906112d0565b60405180910390f35b348015610175575f5ffd5b5061017e610a2d565b60405161018b91906111b1565b60405180910390f35b34801561019f575f5ffd5b506101a8610a33565b005b3480156101b5575f5ffd5b506101be610a46565b6040516101cb9190611309565b60405180910390f35b6101dc610a6d565b005b3480156101e9575f5ffd5b506101f2610e57565b6040516101ff91906111b1565b60405180910390f35b348015610213575f5ffd5b5061022e60048036038101906102299190611350565b610e5d565b005b600c5481565b6006544211610270576040517eecac0100000000000000000000000000000000000000000000000000000000815260040160405180910390fd5b610278610ee1565b610280610f68565b60075460035411156102be576040517f798fad5200000000000000000000000000000000000000000000000000000000815260040160405180910390fd5b5f60075490505f6007819055505f3373ffffffffffffffffffffffffffffffffffffffff16826040516102f0906113a8565b5f6040518083038185875af1925050503d805f811461032a576040519150601f19603f3d011682016040523d82523d5f602084013e61032f565b606091505b5050905080610373576040517f08c379a000000000000000000000000000000000000000000000000000000000815260040161036a90611416565b60405180910390fd5b3373ffffffffffffffffffffffffffffffffffffffff167feaff4b37086828766ad3268786972c0cd24259d4c87a80f9d3963a3c3d999b0d836040516103b991906111b1565b60405180910390a250506103cb610fae565b565b6006544211610407576040517eecac0100000000000000000000000000000000000000000000000000000000815260040160405180910390fd5b61040f610f68565b6007546003541161044c576040517f3cf42ed100000000000000000000000000000000000000000000000000000000815260040160405180910390fd5b5f600281111561045f5761045e6111ca565b5b600f5f9054906101000a900460ff1660028111156104805761047f6111ca565b5b03610647575f600d5f3373ffffffffffffffffffffffffffffffffffffffff1673ffffffffffffffffffffffffffffffffffffffff1681526020019081526020015f205490505f8111610508576040517f08c379a00000000000000000000000000000000000000000000000000000000081526004016104ff9061147e565b60405180910390fd5b5f600d5f3373ffffffffffffffffffffffffffffffffffffffff1673ffffffffffffffffffffffffffffffffffffffff1681526020019081526020015f20819055505f3373ffffffffffffffffffffffffffffffffffffffff168260405161056f906113a8565b5f6040518083038185875af1925050503d805f81146105a9576040519150601f19603f3d011682016040523d82523d5f602084013e6105ae565b606091505b50509050806105f2576040517f08c379a00000000000000000000000000000000000000000000000000000000081526004016105e990611416565b60405180910390fd5b3373ffffffffffffffffffffffffffffffffffffffff167f358fe4192934d3bf28ae181feda1f4bd08ca67f5e2fad55582cce5eb67304ae98360405161063891906111b1565b60405180910390a25050610679565b6040517f828acb7c00000000000000000000000000000000000000000000000000000000815260040160405180910390fd5b610681610fae565b565b60065442116106bd576040517eecac0100000000000000000000000000000000000000000000000000000000815260040160405180910390fd5b6106c5610f68565b5f60028111156106d8576106d76111ca565b5b600f5f9054906101000a900460ff1660028111156106f9576106f86111ca565b5b14806107365750600280811115610713576107126111ca565b5b600f5f9054906101000a900460ff166002811115610734576107336111ca565b5b145b1561085b575f600e5f3373ffffffffffffffffffffffffffffffffffffffff1673ffffffffffffffffffffffffffffffffffffffff1681526020019081526020015f205490505f600e5f3373ffffffffffffffffffffffffffffffffffffffff1673ffffffffffffffffffffffffffffffffffffffff1681526020019081526020015f208190555061080b3382600f60019054906101000a900473ffffffffffffffffffffffffffffffffffffffff1673ffffffffffffffffffffffffffffffffffffffff16610fb79092919063ffffffff16565b3373ffffffffffffffffffffffffffffffffffffffff167f896e034966eaaf1adc54acc0f257056febbd300c9e47182cf761982cf1f5e4308260405161085191906111b1565b60405180910390a2505b6001600281111561086f5761086e6111ca565b5b600f5f9054906101000a900460ff1660028111156108905761088f6111ca565b5b036109ec575f6009546008546108a691906114f6565b90505f600d5f3373ffffffffffffffffffffffffffffffffffffffff1673ffffffffffffffffffffffffffffffffffffffff1681526020019081526020015f205490505f600e5f3373ffffffffffffffffffffffffffffffffffffffff1673ffffffffffffffffffffffffffffffffffffffff1681526020019081526020015f20819055505f82670de0b6b3a7640000836109419190611526565b61094b91906114f6565b905061099a3382600f60019054906101000a900473ffffffffffffffffffffffffffffffffffffffff1673ffffffffffffffffffffffffffffffffffffffff16610fb79092919063ffffffff16565b3373ffffffffffffffffffffffffffffffffffffffff167f896e034966eaaf1adc54acc0f257056febbd300c9e47182cf761982cf1f5e430826040516109e091906111b1565b60405180910390a25050505b6109f4610fae565b565b600f5f9054906101000a900460ff1681565b600a5f9054906101000a900473ffffffffffffffffffffffffffffffffffffffff1681565b60095481565b610a3b610ee1565b610a445f611036565b565b5f5f5f9054906101000a900473ffffffffffffffffffffffffffffffffffffffff16905090565b600554421015610aa9576040517f2d0a346e00000000000000000000000000000000000000000000000000000000815260040160405180910390fd5b600654421115610ae5576040517f8531bb5600000000000000000000000000000000000000000000000000000000815260040160405180910390fd5b60045434600754610af69190611567565b1115610b2e576040517f09664b4b00000000000000000000000000000000000000000000000000000000815260040160405180910390fd5b34600d5f3373ffffffffffffffffffffffffffffffffffffffff1673ffffffffffffffffffffffffffffffffffffffff1681526020019081526020015f205f828254610b7a9190611567565b925050819055503460075f828254610b929190611567565b925050819055505f6002811115610bac57610bab6111ca565b5b600f5f9054906101000a900460ff166002811115610bcd57610bcc6111ca565b5b1480610c0a5750600280811115610be757610be66111ca565b5b600f5f9054906101000a900460ff166002811115610c0857610c076111ca565b5b145b15610d6d575f600254670de0b6b3a764000034610c279190611526565b610c3191906114f6565b905080600e5f3373ffffffffffffffffffffffffffffffffffffffff1673ffffffffffffffffffffffffffffffffffffffff1681526020019081526020015f205f828254610c7f9190611567565b92505081905550600a5f9054906101000a900473ffffffffffffffffffffffffffffffffffffffff1673ffffffffffffffffffffffffffffffffffffffff166359f3a97d3383600b54600c546040518563ffffffff1660e01b8152600401610cea949392919061159a565b5f604051808303815f87803b158015610d01575f5ffd5b505af1158015610d13573d5f5f3e3d5ffd5b505050503373ffffffffffffffffffffffffffffffffffffffff167f8fafebcaf9d154343dad25669bfa277f4fbacd7ac6b0c4fed522580e040a0f333483604051610d5f9291906115dd565b60405180910390a250610e55565b60016002811115610d8157610d806111ca565b5b600f5f9054906101000a900460ff166002811115610da257610da16111ca565b5b03610e54575f60095411610deb576040517f08c379a0000000000000000000000000000000000000000000000000000000008152600401610de29061164e565b60405180910390fd5b3460085f828254610dfc9190611567565b925050819055503373ffffffffffffffffffffffffffffffffffffffff167f8fafebcaf9d154343dad25669bfa277f4fbacd7ac6b0c4fed522580e040a0f33345f604051610e4b9291906116a5565b60405180910390a25b5b565b600b5481565b610e65610ee1565b5f73ffffffffffffffffffffffffffffffffffffffff168173ffffffffffffffffffffffffffffffffffffffff1603610ed5575f6040517f1e4fbdf7000000000000000000000000000000000000000000000000000000008152600401610ecc9190611309565b60405180910390fd5b610ede81611036565b50565b610ee96110f7565b73ffffffffffffffffffffffffffffffffffffffff16610f07610a46565b73ffffffffffffffffffffffffffffffffffffffff1614610f6657610f2a6110f7565b6040517f118cdaa7000000000000000000000000000000000000000000000000000000008152600401610f5d9190611309565b60405180910390fd5b565b600260015403610fa4576040517f3ee5aeb500000000000000000000000000000000000000000000000000000000815260040160405180910390fd5b6002600181905550565b60018081905550565b611031838473ffffffffffffffffffffffffffffffffffffffff1663a9059cbb8585604051602401610fea9291906116cc565b604051602081830303815290604052915060e01b6020820180517bffffffffffffffffffffffffffffffffffffffffffffffffffffffff83818316178352505050506110fe565b505050565b5f5f5f9054906101000a900473ffffffffffffffffffffffffffffffffffffffff169050815f5f6101000a81548173ffffffffffffffffffffffffffffffffffffffff021916908373ffffffffffffffffffffffffffffffffffffffff1602179055508173ffffffffffffffffffffffffffffffffffffffff168173ffffffffffffffffffffffffffffffffffffffff167f8be0079c531659141344cd1fd0a4f28419497f9722a3daafe3b4186f6b6457e060405160405180910390a35050565b5f33905090565b5f5f60205f8451602086015f885af18061111d576040513d5f823e3d81fd5b3d92505f519150505f8214611136576001811415611151565b5f8473ffffffffffffffffffffffffffffffffffffffff163b145b1561119357836040517f5274afe700000000000000000000000000000000000000000000000000000000815260040161118a9190611309565b60405180910390fd5b50505050565b5f819050919050565b6111ab81611199565b82525050565b5f6020820190506111c45f8301846111a2565b92915050565b7f4e487b71000000000000000000000000000000000000000000000000000000005f52602160045260245ffd5b60038110611208576112076111ca565b5b50565b5f819050611218826111f7565b919050565b5f6112278261120b565b9050919050565b6112378161121d565b82525050565b5f6020820190506112505f83018461122e565b92915050565b5f73ffffffffffffffffffffffffffffffffffffffff82169050919050565b5f819050919050565b5f61129861129361128e84611256565b611275565b611256565b9050919050565b5f6112a98261127e565b9050919050565b5f6112ba8261129f565b9050919050565b6112ca816112b0565b82525050565b5f6020820190506112e35f8301846112c1565b92915050565b5f6112f382611256565b9050919050565b611303816112e9565b82525050565b5f60208201905061131c5f8301846112fa565b92915050565b5f5ffd5b61132f816112e9565b8114611339575f5ffd5b50565b5f8135905061134a81611326565b92915050565b5f6020828403121561136557611364611322565b5b5f6113728482850161133c565b91505092915050565b5f81905092915050565b50565b5f6113935f8361137b565b915061139e82611385565b5f82019050919050565b5f6113b282611388565b9150819050919050565b5f82825260208201905092915050565b7f526566756e64206661696c6564000000000000000000000000000000000000005f82015250565b5f611400600d836113bc565b915061140b826113cc565b602082019050919050565b5f6020820190508181035f83015261142d816113f4565b9050919050565b7f4e6f20726566756e6420617661696c61626c65000000000000000000000000005f82015250565b5f6114686013836113bc565b915061147382611434565b602082019050919050565b5f6020820190508181035f8301526114958161145c565b9050919050565b7f4e487b71000000000000000000000000000000000000000000000000000000005f52601260045260245ffd5b7f4e487b71000000000000000000000000000000000000000000000000000000005f52601160045260245ffd5b5f61150082611199565b915061150b83611199565b92508261151b5761151a61149c565b5b828204905092915050565b5f61153082611199565b915061153b83611199565b925082820261154981611199565b915082820484148315176115605761155f6114c9565b5b5092915050565b5f61157182611199565b915061157c83611199565b9250828201905080821115611594576115936114c9565b5b92915050565b5f6080820190506115ad5f8301876112fa565b6115ba60208301866111a2565b6115c760408301856111a2565b6115d460608301846111a2565b95945050505050565b5f6040820190506115f05f8301856111a2565b6115fd60208301846111a2565b9392505050565b7f4e6f20746f6b656e7320666f722073616c6500000000000000000000000000005f82015250565b5f6116386012836113bc565b915061164382611604565b602082019050919050565b5f6020820190508181035f8301526116658161162c565b9050919050565b5f819050919050565b5f61168f61168a6116858461166c565b611275565b611199565b9050919050565b61169f81611675565b82525050565b5f6040820190506116b85f8301856111a2565b6116c56020830184611696565b9392505050565b5f6040820190506116df5f8301856112fa565b6116ec60208301846111a2565b939250505056fea264697066735822122095bb8e580a6423ac2ec94535856da32630c8183fe86598a4d1ec64fb7652111564736f6c634300081c0033a2646970667358221220f1f0324e30954ca76a04681644240949668a9722832d74d0d6214709091e896a64736f6c634300081c0033","linkReferences":{}},"methodIdentifiers":{"createTokenSale(address,uint256,uint256,address,uint256,uint256,uint256,uint256,uint256,uint8,uint256)":"a7546439","getAllTokenSales()":"f5d8b4ea","owner()":"8da5cb5b","renounceOwnership()":"715018a6","tokenSales(uint256)":"45cf084b","transferOwnership(address)":"f2fde38b"},"id":30}