{"contracts/simpleNFT.sol":{"MyNFT":{"abi":[{"inputs":[],"stateMutability":"nonpayable","type":"constructor"},{"inputs":[{"internalType":"address","name":"sender","type":"address"},{"internalType":"uint256","name":"tokenId","type":"uint256"},{"internalType":"address","name":"owner","type":"address"}],"name":"ERC721IncorrectOwner","type":"error"},{"inputs":[{"internalType":"address","name":"operator","type":"address"},{"internalType":"uint256","name":"tokenId","type":"uint256"}],"name":"ERC721InsufficientApproval","type":"error"},{"inputs":[{"internalType":"address","name":"approver","type":"address"}],"name":"ERC721InvalidApprover","type":"error"},{"inputs":[{"internalType":"address","name":"operator","type":"address"}],"name":"ERC721InvalidOperator","type":"error"},{"inputs":[{"internalType":"address","name":"owner","type":"address"}],"name":"ERC721InvalidOwner","type":"error"},{"inputs":[{"internalType":"address","name":"receiver","type":"address"}],"name":"ERC721InvalidReceiver","type":"error"},{"inputs":[{"internalType":"address","name":"sender","type":"address"}],"name":"ERC721InvalidSender","type":"error"},{"inputs":[{"internalType":"uint256","name":"tokenId","type":"uint256"}],"name":"ERC721NonexistentToken","type":"error"},{"inputs":[{"internalType":"address","name":"owner","type":"address"}],"name":"OwnableInvalidOwner","type":"error"},{"inputs":[{"internalType":"address","name":"account","type":"address"}],"name":"OwnableUnauthorizedAccount","type":"error"},{"inputs":[],"name":"ReentrancyGuardReentrantCall","type":"error"},{"anonymous":false,"inputs":[{"indexed":true,"internalType":"address","name":"owner","type":"address"},{"indexed":true,"internalType":"address","name":"approved","type":"address"},{"indexed":true,"internalType":"uint256","name":"tokenId","type":"uint256"}],"name":"Approval","type":"event"},{"anonymous":false,"inputs":[{"indexed":true,"internalType":"address","name":"owner","type":"address"},{"indexed":true,"internalType":"address","name":"operator","type":"address"},{"indexed":false,"internalType":"bool","name":"approved","type":"bool"}],"name":"ApprovalForAll","type":"event"},{"anonymous":false,"inputs":[{"indexed":false,"internalType":"uint256","name":"_fromTokenId","type":"uint256"},{"indexed":false,"internalType":"uint256","name":"_toTokenId","type":"uint256"}],"name":"BatchMetadataUpdate","type":"event"},{"anonymous":false,"inputs":[{"indexed":false,"internalType":"uint256","name":"_tokenId","type":"uint256"}],"name":"MetadataUpdate","type":"event"},{"anonymous":false,"inputs":[{"indexed":false,"internalType":"string","name":"tokenURI","type":"string"},{"indexed":false,"internalType":"uint256","name":"tokenID","type":"uint256"}],"name":"Minted","type":"event"},{"anonymous":false,"inputs":[{"indexed":true,"internalType":"address","name":"previousOwner","type":"address"},{"indexed":true,"internalType":"address","name":"newOwner","type":"address"}],"name":"OwnershipTransferred","type":"event"},{"anonymous":false,"inputs":[{"indexed":true,"internalType":"address","name":"from","type":"address"},{"indexed":true,"internalType":"address","name":"to","type":"address"},{"indexed":true,"internalType":"uint256","name":"tokenId","type":"uint256"}],"name":"Transfer","type":"event"},{"anonymous":false,"inputs":[{"indexed":false,"internalType":"address","name":"owner","type":"address"},{"indexed":false,"internalType":"uint256","name":"amount","type":"uint256"}],"name":"Withdrawn","type":"event"},{"inputs":[{"internalType":"address","name":"to","type":"address"},{"internalType":"uint256","name":"tokenId","type":"uint256"}],"name":"approve","outputs":[],"stateMutability":"nonpayable","type":"function"},{"inputs":[{"internalType":"address","name":"owner","type":"address"}],"name":"balanceOf","outputs":[{"internalType":"uint256","name":"","type":"uint256"}],"stateMutability":"view","type":"function"},{"inputs":[{"internalType":"uint256","name":"tokenId","type":"uint256"}],"name":"getApproved","outputs":[{"internalType":"address","name":"","type":"address"}],"stateMutability":"view","type":"function"},{"inputs":[{"internalType":"address","name":"owner","type":"address"},{"internalType":"address","name":"operator","type":"address"}],"name":"isApprovedForAll","outputs":[{"internalType":"bool","name":"","type":"bool"}],"stateMutability":"view","type":"function"},{"inputs":[{"internalType":"string","name":"_tokenURI","type":"string"}],"name":"mintNFT","outputs":[{"internalType":"uint256","name":"","type":"uint256"}],"stateMutability":"payable","type":"function"},{"inputs":[],"name":"mintingFee","outputs":[{"internalType":"uint256","name":"","type":"uint256"}],"stateMutability":"view","type":"function"},{"inputs":[],"name":"name","outputs":[{"internalType":"string","name":"","type":"string"}],"stateMutability":"view","type":"function"},{"inputs":[],"name":"owner","outputs":[{"internalType":"address","name":"","type":"address"}],"stateMutability":"view","type":"function"},{"inputs":[{"internalType":"uint256","name":"tokenId","type":"uint256"}],"name":"ownerOf","outputs":[{"internalType":"address","name":"","type":"address"}],"stateMutability":"view","type":"function"},{"inputs":[],"name":"renounceOwnership","outputs":[],"stateMutability":"nonpayable","type":"function"},{"inputs":[{"internalType":"address","name":"from","type":"address"},{"internalType":"address","name":"to","type":"address"},{"internalType":"uint256","name":"tokenId","type":"uint256"}],"name":"safeTransferFrom","outputs":[],"stateMutability":"nonpayable","type":"function"},{"inputs":[{"internalType":"address","name":"from","type":"address"},{"internalType":"address","name":"to","type":"address"},{"internalType":"uint256","name":"tokenId","type":"uint256"},{"internalType":"bytes","name":"data","type":"bytes"}],"name":"safeTransferFrom","outputs":[],"stateMutability":"nonpayable","type":"function"},{"inputs":[{"internalType":"address","name":"operator","type":"address"},{"internalType":"bool","name":"approved","type":"bool"}],"name":"setApprovalForAll","outputs":[],"stateMutability":"nonpayable","type":"function"},{"inputs":[{"internalType":"bytes4","name":"interfaceId","type":"bytes4"}],"name":"supportsInterface","outputs":[{"internalType":"bool","name":"","type":"bool"}],"stateMutability":"view","type":"function"},{"inputs":[],"name":"symbol","outputs":[{"internalType":"string","name":"","type":"string"}],"stateMutability":"view","type":"function"},{"inputs":[],"name":"tokenCounter","outputs":[{"internalType":"uint256","name":"","type":"uint256"}],"stateMutability":"view","type":"function"},{"inputs":[{"internalType":"uint256","name":"tokenId","type":"uint256"}],"name":"tokenURI","outputs":[{"internalType":"string","name":"","type":"string"}],"stateMutability":"view","type":"function"},{"inputs":[{"internalType":"address","name":"from","type":"address"},{"internalType":"address","name":"to","type":"address"},{"internalType":"uint256","name":"tokenId","type":"uint256"}],"name":"transferFrom","outputs":[],"stateMutability":"nonpayable","type":"function"},{"inputs":[{"internalType":"address","name":"newOwner","type":"address"}],"name":"transferOwnership","outputs":[],"stateMutability":"nonpayable","type":"function"},{"inputs":[],"name":"withdraw","outputs":[],"stateMutability":"nonpayable","type":"function"}],"evm":{"bytecode":{"linkReferences":{},"object":"60806040523480156200001157600080fd5b50336040518060400160405280600581526020016441796c617360d81b8152506040518060400160405280600381526020016213505360ea1b81525081600090816200005e9190620001b2565b5060016200006d8282620001b2565b5050506001600160a01b0381166200009f57604051631e4fbdf760e01b81526000600482015260240160405180910390fd5b620000aa81620000bb565b50600160085560006009556200027e565b600780546001600160a01b038381166001600160a01b0319831681179093556040519116919082907f8be0079c531659141344cd1fd0a4f28419497f9722a3daafe3b4186f6b6457e090600090a35050565b634e487b7160e01b600052604160045260246000fd5b600181811c908216806200013857607f821691505b6020821081036200015957634e487b7160e01b600052602260045260246000fd5b50919050565b601f821115620001ad57600081815260208120601f850160051c81016020861015620001885750805b601f850160051c820191505b81811015620001a95782815560010162000194565b5050505b505050565b81516001600160401b03811115620001ce57620001ce6200010d565b620001e681620001df845462000123565b846200015f565b602080601f8311600181146200021e5760008415620002055750858301515b600019600386901b1c1916600185901b178555620001a9565b600085815260208120601f198616915b828110156200024f578886015182559484019460019091019084016200022e565b50858210156200026e5787850151600019600388901b60f8161c191681555b5050505050600190811b01905550565b6117c2806200028e6000396000f3fe60806040526004361061011f5760003560e01c8063715018a6116100a0578063c87b56dd11610064578063c87b56dd1461031b578063d082e3811461033b578063e985e9c514610351578063f2fde38b14610371578063fb37e8831461039157600080fd5b8063715018a6146102935780638da5cb5b146102a857806395d89b41146102c6578063a22cb465146102db578063b88d4fde146102fb57600080fd5b80633ccfd60b116100e75780633ccfd60b146101f557806342842e0e1461020a5780635a64ad951461022a5780636352211e1461025357806370a082311461027357600080fd5b806301ffc9a71461012457806306fdde0314610159578063081812fc1461017b578063095ea7b3146101b357806323b872dd146101d5575b600080fd5b34801561013057600080fd5b5061014461013f36600461128f565b6103a4565b60405190151581526020015b60405180910390f35b34801561016557600080fd5b5061016e6103cf565b60405161015091906112fc565b34801561018757600080fd5b5061019b61019636600461130f565b610461565b6040516001600160a01b039091168152602001610150565b3480156101bf57600080fd5b506101d36101ce36600461133f565b61048a565b005b3480156101e157600080fd5b506101d36101f0366004611369565b610499565b34801561020157600080fd5b506101d3610529565b34801561021657600080fd5b506101d3610225366004611369565b610646565b34801561023657600080fd5b50610245662386f26fc1000081565b604051908152602001610150565b34801561025f57600080fd5b5061019b61026e36600461130f565b610666565b34801561027f57600080fd5b5061024561028e3660046113a5565b610671565b34801561029f57600080fd5b506101d36106b9565b3480156102b457600080fd5b506007546001600160a01b031661019b565b3480156102d257600080fd5b5061016e6106cb565b3480156102e757600080fd5b506101d36102f63660046113c0565b6106da565b34801561030757600080fd5b506101d3610316366004611488565b6106e5565b34801561032757600080fd5b5061016e61033636600461130f565b6106fd565b34801561034757600080fd5b5061024560095481565b34801561035d57600080fd5b5061014461036c366004611504565b61080e565b34801561037d57600080fd5b506101d361038c3660046113a5565b61083c565b61024561039f366004611537565b61087a565b60006001600160e01b03198216632483248360e11b14806103c957506103c9826109e3565b92915050565b6060600080546103de90611580565b80601f016020809104026020016040519081016040528092919081815260200182805461040a90611580565b80156104575780601f1061042c57610100808354040283529160200191610457565b820191906000526020600020905b81548152906001019060200180831161043a57829003601f168201915b5050505050905090565b600061046c82610a33565b506000828152600460205260409020546001600160a01b03166103c9565b610495828233610a6c565b5050565b6001600160a01b0382166104c857604051633250574960e11b8152600060048201526024015b60405180910390fd5b60006104d5838333610a79565b9050836001600160a01b0316816001600160a01b031614610523576040516364283d7b60e01b81526001600160a01b03808616600483015260248201849052821660448201526064016104bf565b50505050565b610531610b72565b610539610b9c565b47600061054e6007546001600160a01b031690565b6001600160a01b03168260405160006040518083038185875af1925050503d8060008114610598576040519150601f19603f3d011682016040523d82523d6000602084013e61059d565b606091505b50509050806105e45760405162461bcd60e51b8152602060048201526013602482015272115512081d1c985b9cd9995c8819985a5b1959606a1b60448201526064016104bf565b7f7084f5476618d8e60b11ef0d7d3f06914655adb8793e28ff7f018d4c76d505d56106176007546001600160a01b031690565b604080516001600160a01b039092168252602082018590520160405180910390a150506106446001600855565b565b610661838383604051806020016040528060008152506106e5565b505050565b60006103c982610a33565b60006001600160a01b03821661069d576040516322718ad960e21b8152600060048201526024016104bf565b506001600160a01b031660009081526003602052604090205490565b6106c1610b9c565b6106446000610bc9565b6060600180546103de90611580565b610495338383610c1b565b6106f0848484610499565b6105233385858585610cba565b606061070882610a33565b506000828152600660205260408120805461072290611580565b80601f016020809104026020016040519081016040528092919081815260200182805461074e90611580565b801561079b5780601f106107705761010080835404028352916020019161079b565b820191906000526020600020905b81548152906001019060200180831161077e57829003601f168201915b5050505050905060006107b960408051602081019091526000815290565b905080516000036107cb575092915050565b8151156107fd5780826040516020016107e59291906115ba565b60405160208183030381529060405292505050919050565b61080684610de5565b949350505050565b6001600160a01b03918216600090815260056020908152604080832093909416825291909152205460ff1690565b610844610b9c565b6001600160a01b03811661086e57604051631e4fbdf760e01b8152600060048201526024016104bf565b61087781610bc9565b50565b6000610884610b72565b662386f26fc100003410156108d45760405162461bcd60e51b8152602060048201526016602482015275139bdd08195b9bdd59da08115512081d1bc81b5a5b9d60521b60448201526064016104bf565b60098054600181019091556108e93382610e5a565b6108f38184610e74565b6000610906662386f26fc10000346115e9565b9050801561099857604051600090339083908381818185875af1925050503d8060008114610950576040519150601f19603f3d011682016040523d82523d6000602084013e610955565b606091505b50509050806109965760405162461bcd60e51b815260206004820152600d60248201526c1499599d5b990819985a5b1959609a1b60448201526064016104bf565b505b7f84fedafd9490d60ff476d007409fc8709ce33b506d702cddbf1e37b1dc5fc2ef84836040516109c992919061160a565b60405180910390a15090506109de6001600855565b919050565b60006001600160e01b031982166380ac58cd60e01b1480610a1457506001600160e01b03198216635b5e139f60e01b145b806103c957506301ffc9a760e01b6001600160e01b03198316146103c9565b6000818152600260205260408120546001600160a01b0316806103c957604051637e27328960e01b8152600481018490526024016104bf565b6106618383836001610ec4565b6000828152600260205260408120546001600160a01b0390811690831615610aa657610aa6818486610fca565b6001600160a01b03811615610ae457610ac3600085600080610ec4565b6001600160a01b038116600090815260036020526040902080546000190190555b6001600160a01b03851615610b13576001600160a01b0385166000908152600360205260409020805460010190555b60008481526002602052604080822080546001600160a01b0319166001600160a01b0389811691821790925591518793918516917fddf252ad1be2c89b69c2b068fc378daa952ba7f163c4a11628f55a4df523b3ef91a4949350505050565b600260085403610b9557604051633ee5aeb560e01b815260040160405180910390fd5b6002600855565b6007546001600160a01b031633146106445760405163118cdaa760e01b81523360048201526024016104bf565b600780546001600160a01b038381166001600160a01b0319831681179093556040519116919082907f8be0079c531659141344cd1fd0a4f28419497f9722a3daafe3b4186f6b6457e090600090a35050565b6001600160a01b038216610c4d57604051630b61174360e31b81526001600160a01b03831660048201526024016104bf565b6001600160a01b03838116600081815260056020908152604080832094871680845294825291829020805460ff191686151590811790915591519182527f17307eab39ab6107e8899845ad3d59bd9653f200f220920489ca2b5937696c31910160405180910390a3505050565b6001600160a01b0383163b15610dde57604051630a85bd0160e11b81526001600160a01b0384169063150b7a0290610cfc90889088908790879060040161162c565b6020604051808303816000875af1925050508015610d37575060408051601f3d908101601f19168201909252610d3491810190611669565b60015b610da0573d808015610d65576040519150601f19603f3d011682016040523d82523d6000602084013e610d6a565b606091505b508051600003610d9857604051633250574960e11b81526001600160a01b03851660048201526024016104bf565b805181602001fd5b6001600160e01b03198116630a85bd0160e11b14610ddc57604051633250574960e11b81526001600160a01b03851660048201526024016104bf565b505b5050505050565b6060610df082610a33565b506000610e0860408051602081019091526000815290565b90506000815111610e285760405180602001604052806000815250610e53565b80610e328461102e565b604051602001610e439291906115ba565b6040516020818303038152906040525b9392505050565b6104958282604051806020016040528060008152506110c1565b6000828152600660205260409020610e8c82826116cc565b506040518281527ff8e1a15aba9398e019f0b49df1a4fde98ee17ae345cb5f6b5e2c27f5033e8ce79060200160405180910390a15050565b8080610ed857506001600160a01b03821615155b15610f9a576000610ee884610a33565b90506001600160a01b03831615801590610f145750826001600160a01b0316816001600160a01b031614155b8015610f275750610f25818461080e565b155b15610f505760405163a9fbf51f60e01b81526001600160a01b03841660048201526024016104bf565b8115610f985783856001600160a01b0316826001600160a01b03167f8c5be1e5ebec7d5bd14f71427d1e84f3dd0314c0f7b2291e5b200ac8c7c3b92560405160405180910390a45b505b5050600090815260046020526040902080546001600160a01b0319166001600160a01b0392909216919091179055565b610fd58383836110d9565b610661576001600160a01b03831661100357604051637e27328960e01b8152600481018290526024016104bf565b60405163177e802f60e01b81526001600160a01b0383166004820152602481018290526044016104bf565b6060600061103b8361113c565b600101905060008167ffffffffffffffff81111561105b5761105b6113fc565b6040519080825280601f01601f191660200182016040528015611085576020820181803683370190505b5090508181016020015b600019016f181899199a1a9b1b9c1cb0b131b232b360811b600a86061a8153600a850494508461108f57509392505050565b6110cb8383611214565b610661336000858585610cba565b60006001600160a01b038316158015906108065750826001600160a01b0316846001600160a01b031614806111135750611113848461080e565b806108065750506000908152600460205260409020546001600160a01b03908116911614919050565b60008072184f03e93ff9f4daa797ed6e38ed64bf6a1f0160401b831061117b5772184f03e93ff9f4daa797ed6e38ed64bf6a1f0160401b830492506040015b6d04ee2d6d415b85acef810000000083106111a7576d04ee2d6d415b85acef8100000000830492506020015b662386f26fc1000083106111c557662386f26fc10000830492506010015b6305f5e10083106111dd576305f5e100830492506008015b61271083106111f157612710830492506004015b60648310611203576064830492506002015b600a83106103c95760010192915050565b6001600160a01b03821661123e57604051633250574960e11b8152600060048201526024016104bf565b600061124c83836000610a79565b90506001600160a01b03811615610661576040516339e3563760e11b8152600060048201526024016104bf565b6001600160e01b03198116811461087757600080fd5b6000602082840312156112a157600080fd5b8135610e5381611279565b60005b838110156112c75781810151838201526020016112af565b50506000910152565b600081518084526112e88160208601602086016112ac565b601f01601f19169290920160200192915050565b602081526000610e5360208301846112d0565b60006020828403121561132157600080fd5b5035919050565b80356001600160a01b03811681146109de57600080fd5b6000806040838503121561135257600080fd5b61135b83611328565b946020939093013593505050565b60008060006060848603121561137e57600080fd5b61138784611328565b925061139560208501611328565b9150604084013590509250925092565b6000602082840312156113b757600080fd5b610e5382611328565b600080604083850312156113d357600080fd5b6113dc83611328565b9150602083013580151581146113f157600080fd5b809150509250929050565b634e487b7160e01b600052604160045260246000fd5b600067ffffffffffffffff8084111561142d5761142d6113fc565b604051601f8501601f19908116603f01168101908282118183101715611455576114556113fc565b8160405280935085815286868601111561146e57600080fd5b858560208301376000602087830101525050509392505050565b6000806000806080858703121561149e57600080fd5b6114a785611328565b93506114b560208601611328565b925060408501359150606085013567ffffffffffffffff8111156114d857600080fd5b8501601f810187136114e957600080fd5b6114f887823560208401611412565b91505092959194509250565b6000806040838503121561151757600080fd5b61152083611328565b915061152e60208401611328565b90509250929050565b60006020828403121561154957600080fd5b813567ffffffffffffffff81111561156057600080fd5b8201601f8101841361157157600080fd5b61080684823560208401611412565b600181811c9082168061159457607f821691505b6020821081036115b457634e487b7160e01b600052602260045260246000fd5b50919050565b600083516115cc8184602088016112ac565b8351908301906115e08183602088016112ac565b01949350505050565b818103818111156103c957634e487b7160e01b600052601160045260246000fd5b60408152600061161d60408301856112d0565b90508260208301529392505050565b6001600160a01b038581168252841660208201526040810183905260806060820181905260009061165f908301846112d0565b9695505050505050565b60006020828403121561167b57600080fd5b8151610e5381611279565b601f82111561066157600081815260208120601f850160051c810160208610156116ad5750805b601f850160051c820191505b81811015610ddc578281556001016116b9565b815167ffffffffffffffff8111156116e6576116e66113fc565b6116fa816116f48454611580565b84611686565b602080601f83116001811461172f57600084156117175750858301515b600019600386901b1c1916600185901b178555610ddc565b600085815260208120601f198616915b8281101561175e5788860151825594840194600190910190840161173f565b508582101561177c5787850151600019600388901b60f8161c191681555b5050505050600190811b0190555056fea26469706673582212203899af6b9f5b90e1d7765eaa5ae0e428373ae7f58ac383d7a6b9e5d40b29ca9264736f6c63430008150033","opcodes":"PUSH1 0x80 PUSH1 0x40 MSTORE CALLVALUE DUP1 ISZERO PUSH3 0x11 JUMPI PUSH1 0x0 DUP1 REVERT JUMPDEST POP CALLER PUSH1 0x40 MLOAD DUP1 PUSH1 0x40 ADD PUSH1 0x40 MSTORE DUP1 PUSH1 0x5 DUP2 MSTORE PUSH1 0x20 ADD PUSH5 0x41796C6173 PUSH1 0xD8 SHL DUP2 MSTORE POP PUSH1 0x40 MLOAD DUP1 PUSH1 0x40 ADD PUSH1 0x40 MSTORE DUP1 PUSH1 0x3 DUP2 MSTORE PUSH1 0x20 ADD PUSH3 0x135053 PUSH1 0xEA SHL DUP2 MSTORE POP DUP2 PUSH1 0x0 SWAP1 DUP2 PUSH3 0x5E SWAP2 SWAP1 PUSH3 0x1B2 JUMP JUMPDEST POP PUSH1 0x1 PUSH3 0x6D DUP3 DUP3 PUSH3 0x1B2 JUMP JUMPDEST POP POP POP PUSH1 0x1 PUSH1 0x1 PUSH1 0xA0 SHL SUB DUP2 AND PUSH3 0x9F JUMPI PUSH1 0x40 MLOAD PUSH4 0x1E4FBDF7 PUSH1 0xE0 SHL DUP2 MSTORE PUSH1 0x0 PUSH1 0x4 DUP3 ADD MSTORE PUSH1 0x24 ADD PUSH1 0x40 MLOAD DUP1 SWAP2 SUB SWAP1 REVERT JUMPDEST PUSH3 0xAA DUP2 PUSH3 0xBB JUMP JUMPDEST POP PUSH1 0x1 PUSH1 0x8 SSTORE PUSH1 0x0 PUSH1 0x9 SSTORE PUSH3 0x27E JUMP JUMPDEST PUSH1 0x7 DUP1 SLOAD PUSH1 0x1 PUSH1 0x1 PUSH1 0xA0 SHL SUB DUP4 DUP2 AND PUSH1 0x1 PUSH1 0x1 PUSH1 0xA0 SHL SUB NOT DUP4 AND DUP2 OR SWAP1 SWAP4 SSTORE PUSH1 0x40 MLOAD SWAP2 AND SWAP2 SWAP1 DUP3 SWAP1 PUSH32 0x8BE0079C531659141344CD1FD0A4F28419497F9722A3DAAFE3B4186F6B6457E0 SWAP1 PUSH1 0x0 SWAP1 LOG3 POP POP JUMP JUMPDEST PUSH4 0x4E487B71 PUSH1 0xE0 SHL PUSH1 0x0 MSTORE PUSH1 0x41 PUSH1 0x4 MSTORE PUSH1 0x24 PUSH1 0x0 REVERT JUMPDEST PUSH1 0x1 DUP2 DUP2 SHR SWAP1 DUP3 AND DUP1 PUSH3 0x138 JUMPI PUSH1 0x7F DUP3 AND SWAP2 POP JUMPDEST PUSH1 0x20 DUP3 LT DUP2 SUB PUSH3 0x159 JUMPI PUSH4 0x4E487B71 PUSH1 0xE0 SHL PUSH1 0x0 MSTORE PUSH1 0x22 PUSH1 0x4 MSTORE PUSH1 0x24 PUSH1 0x0 REVERT JUMPDEST POP SWAP2 SWAP1 POP JUMP JUMPDEST PUSH1 0x1F DUP3 GT ISZERO PUSH3 0x1AD JUMPI PUSH1 0x0 DUP2 DUP2 MSTORE PUSH1 0x20 DUP2 KECCAK256 PUSH1 0x1F DUP6 ADD PUSH1 0x5 SHR DUP2 ADD PUSH1 0x20 DUP7 LT ISZERO PUSH3 0x188 JUMPI POP DUP1 JUMPDEST PUSH1 0x1F DUP6 ADD PUSH1 0x5 SHR DUP3 ADD SWAP2 POP JUMPDEST DUP2 DUP2 LT ISZERO PUSH3 0x1A9 JUMPI DUP3 DUP2 SSTORE PUSH1 0x1 ADD PUSH3 0x194 JUMP JUMPDEST POP POP POP JUMPDEST POP POP POP JUMP JUMPDEST DUP2 MLOAD PUSH1 0x1 PUSH1 0x1 PUSH1 0x40 SHL SUB DUP2 GT ISZERO PUSH3 0x1CE JUMPI PUSH3 0x1CE PUSH3 0x10D JUMP JUMPDEST PUSH3 0x1E6 DUP2 PUSH3 0x1DF DUP5 SLOAD PUSH3 0x123 JUMP JUMPDEST DUP5 PUSH3 0x15F JUMP JUMPDEST PUSH1 0x20 DUP1 PUSH1 0x1F DUP4 GT PUSH1 0x1 DUP2 EQ PUSH3 0x21E JUMPI PUSH1 0x0 DUP5 ISZERO PUSH3 0x205 JUMPI POP DUP6 DUP4 ADD MLOAD JUMPDEST PUSH1 0x0 NOT PUSH1 0x3 DUP7 SWAP1 SHL SHR NOT AND PUSH1 0x1 DUP6 SWAP1 SHL OR DUP6 SSTORE PUSH3 0x1A9 JUMP JUMPDEST PUSH1 0x0 DUP6 DUP2 MSTORE PUSH1 0x20 DUP2 KECCAK256 PUSH1 0x1F NOT DUP7 AND SWAP2 JUMPDEST DUP3 DUP2 LT ISZERO PUSH3 0x24F JUMPI DUP9 DUP7 ADD MLOAD DUP3 SSTORE SWAP5 DUP5 ADD SWAP5 PUSH1 0x1 SWAP1 SWAP2 ADD SWAP1 DUP5 ADD PUSH3 0x22E JUMP JUMPDEST POP DUP6 DUP3 LT ISZERO PUSH3 0x26E JUMPI DUP8 DUP6 ADD MLOAD PUSH1 0x0 NOT PUSH1 0x3 DUP9 SWAP1 SHL PUSH1 0xF8 AND SHR NOT AND DUP2 SSTORE JUMPDEST POP POP POP POP POP PUSH1 0x1 SWAP1 DUP2 SHL ADD SWAP1 SSTORE POP JUMP JUMPDEST PUSH2 0x17C2 DUP1 PUSH3 0x28E PUSH1 0x0 CODECOPY PUSH1 0x0 RETURN INVALID PUSH1 0x80 PUSH1 0x40 MSTORE PUSH1 0x4 CALLDATASIZE LT PUSH2 0x11F JUMPI PUSH1 0x0 CALLDATALOAD PUSH1 0xE0 SHR DUP1 PUSH4 0x715018A6 GT PUSH2 0xA0 JUMPI DUP1 PUSH4 0xC87B56DD GT PUSH2 0x64 JUMPI DUP1 PUSH4 0xC87B56DD EQ PUSH2 0x31B JUMPI DUP1 PUSH4 0xD082E381 EQ PUSH2 0x33B JUMPI DUP1 PUSH4 0xE985E9C5 EQ PUSH2 0x351 JUMPI DUP1 PUSH4 0xF2FDE38B EQ PUSH2 0x371 JUMPI DUP1 PUSH4 0xFB37E883 EQ PUSH2 0x391 JUMPI PUSH1 0x0 DUP1 REVERT JUMPDEST DUP1 PUSH4 0x715018A6 EQ PUSH2 0x293 JUMPI DUP1 PUSH4 0x8DA5CB5B EQ PUSH2 0x2A8 JUMPI DUP1 PUSH4 0x95D89B41 EQ PUSH2 0x2C6 JUMPI DUP1 PUSH4 0xA22CB465 EQ PUSH2 0x2DB JUMPI DUP1 PUSH4 0xB88D4FDE EQ PUSH2 0x2FB JUMPI PUSH1 0x0 DUP1 REVERT JUMPDEST DUP1 PUSH4 0x3CCFD60B GT PUSH2 0xE7 JUMPI DUP1 PUSH4 0x3CCFD60B EQ PUSH2 0x1F5 JUMPI DUP1 PUSH4 0x42842E0E EQ PUSH2 0x20A JUMPI DUP1 PUSH4 0x5A64AD95 EQ PUSH2 0x22A JUMPI DUP1 PUSH4 0x6352211E EQ PUSH2 0x253 JUMPI DUP1 PUSH4 0x70A08231 EQ PUSH2 0x273 JUMPI PUSH1 0x0 DUP1 REVERT JUMPDEST DUP1 PUSH4 0x1FFC9A7 EQ PUSH2 0x124 JUMPI DUP1 PUSH4 0x6FDDE03 EQ PUSH2 0x159 JUMPI DUP1 PUSH4 0x81812FC EQ PUSH2 0x17B JUMPI DUP1 PUSH4 0x95EA7B3 EQ PUSH2 0x1B3 JUMPI DUP1 PUSH4 0x23B872DD EQ PUSH2 0x1D5 JUMPI JUMPDEST PUSH1 0x0 DUP1 REVERT JUMPDEST CALLVALUE DUP1 ISZERO PUSH2 0x130 JUMPI PUSH1 0x0 DUP1 REVERT JUMPDEST POP PUSH2 0x144 PUSH2 0x13F CALLDATASIZE PUSH1 0x4 PUSH2 0x128F JUMP JUMPDEST PUSH2 0x3A4 JUMP JUMPDEST PUSH1 0x40 MLOAD SWAP1 ISZERO ISZERO DUP2 MSTORE PUSH1 0x20 ADD JUMPDEST PUSH1 0x40 MLOAD DUP1 SWAP2 SUB SWAP1 RETURN JUMPDEST CALLVALUE DUP1 ISZERO PUSH2 0x165 JUMPI PUSH1 0x0 DUP1 REVERT JUMPDEST POP PUSH2 0x16E PUSH2 0x3CF JUMP JUMPDEST PUSH1 0x40 MLOAD PUSH2 0x150 SWAP2 SWAP1 PUSH2 0x12FC JUMP JUMPDEST CALLVALUE DUP1 ISZERO PUSH2 0x187 JUMPI PUSH1 0x0 DUP1 REVERT JUMPDEST POP PUSH2 0x19B PUSH2 0x196 CALLDATASIZE PUSH1 0x4 PUSH2 0x130F JUMP JUMPDEST PUSH2 0x461 JUMP JUMPDEST PUSH1 0x40 MLOAD PUSH1 0x1 PUSH1 0x1 PUSH1 0xA0 SHL SUB SWAP1 SWAP2 AND DUP2 MSTORE PUSH1 0x20 ADD PUSH2 0x150 JUMP JUMPDEST CALLVALUE DUP1 ISZERO PUSH2 0x1BF JUMPI PUSH1 0x0 DUP1 REVERT JUMPDEST POP PUSH2 0x1D3 PUSH2 0x1CE CALLDATASIZE PUSH1 0x4 PUSH2 0x133F JUMP JUMPDEST PUSH2 0x48A JUMP JUMPDEST STOP JUMPDEST CALLVALUE DUP1 ISZERO PUSH2 0x1E1 JUMPI PUSH1 0x0 DUP1 REVERT JUMPDEST POP PUSH2 0x1D3 PUSH2 0x1F0 CALLDATASIZE PUSH1 0x4 PUSH2 0x1369 JUMP JUMPDEST PUSH2 0x499 JUMP JUMPDEST CALLVALUE DUP1 ISZERO PUSH2 0x201 JUMPI PUSH1 0x0 DUP1 REVERT JUMPDEST POP PUSH2 0x1D3 PUSH2 0x529 JUMP JUMPDEST CALLVALUE DUP1 ISZERO PUSH2 0x216 JUMPI PUSH1 0x0 DUP1 REVERT JUMPDEST POP PUSH2 0x1D3 PUSH2 0x225 CALLDATASIZE PUSH1 0x4 PUSH2 0x1369 JUMP JUMPDEST PUSH2 0x646 JUMP JUMPDEST CALLVALUE DUP1 ISZERO PUSH2 0x236 JUMPI PUSH1 0x0 DUP1 REVERT JUMPDEST POP PUSH2 0x245 PUSH7 0x2386F26FC10000 DUP2 JUMP JUMPDEST PUSH1 0x40 MLOAD SWAP1 DUP2 MSTORE PUSH1 0x20 ADD PUSH2 0x150 JUMP JUMPDEST CALLVALUE DUP1 ISZERO PUSH2 0x25F JUMPI PUSH1 0x0 DUP1 REVERT JUMPDEST POP PUSH2 0x19B PUSH2 0x26E CALLDATASIZE PUSH1 0x4 PUSH2 0x130F JUMP JUMPDEST PUSH2 0x666 JUMP JUMPDEST CALLVALUE DUP1 ISZERO PUSH2 0x27F JUMPI PUSH1 0x0 DUP1 REVERT JUMPDEST POP PUSH2 0x245 PUSH2 0x28E CALLDATASIZE PUSH1 0x4 PUSH2 0x13A5 JUMP JUMPDEST PUSH2 0x671 JUMP JUMPDEST CALLVALUE DUP1 ISZERO PUSH2 0x29F JUMPI PUSH1 0x0 DUP1 REVERT JUMPDEST POP PUSH2 0x1D3 PUSH2 0x6B9 JUMP JUMPDEST CALLVALUE DUP1 ISZERO PUSH2 0x2B4 JUMPI PUSH1 0x0 DUP1 REVERT JUMPDEST POP PUSH1 0x7 SLOAD PUSH1 0x1 PUSH1 0x1 PUSH1 0xA0 SHL SUB AND PUSH2 0x19B JUMP JUMPDEST CALLVALUE DUP1 ISZERO PUSH2 0x2D2 JUMPI PUSH1 0x0 DUP1 REVERT JUMPDEST POP PUSH2 0x16E PUSH2 0x6CB JUMP JUMPDEST CALLVALUE DUP1 ISZERO PUSH2 0x2E7 JUMPI PUSH1 0x0 DUP1 REVERT JUMPDEST POP PUSH2 0x1D3 PUSH2 0x2F6 CALLDATASIZE PUSH1 0x4 PUSH2 0x13C0 JUMP JUMPDEST PUSH2 0x6DA JUMP JUMPDEST CALLVALUE DUP1 ISZERO PUSH2 0x307 JUMPI PUSH1 0x0 DUP1 REVERT JUMPDEST POP PUSH2 0x1D3 PUSH2 0x316 CALLDATASIZE PUSH1 0x4 PUSH2 0x1488 JUMP JUMPDEST PUSH2 0x6E5 JUMP JUMPDEST CALLVALUE DUP1 ISZERO PUSH2 0x327 JUMPI PUSH1 0x0 DUP1 REVERT JUMPDEST POP PUSH2 0x16E PUSH2 0x336 CALLDATASIZE PUSH1 0x4 PUSH2 0x130F JUMP JUMPDEST PUSH2 0x6FD JUMP JUMPDEST CALLVALUE DUP1 ISZERO PUSH2 0x347 JUMPI PUSH1 0x0 DUP1 REVERT JUMPDEST POP PUSH2 0x245 PUSH1 0x9 SLOAD DUP2 JUMP JUMPDEST CALLVALUE DUP1 ISZERO PUSH2 0x35D JUMPI PUSH1 0x0 DUP1 REVERT JUMPDEST POP PUSH2 0x144 PUSH2 0x36C CALLDATASIZE PUSH1 0x4 PUSH2 0x1504 JUMP JUMPDEST PUSH2 0x80E JUMP JUMPDEST CALLVALUE DUP1 ISZERO PUSH2 0x37D JUMPI PUSH1 0x0 DUP1 REVERT JUMPDEST POP PUSH2 0x1D3 PUSH2 0x38C CALLDATASIZE PUSH1 0x4 PUSH2 0x13A5 JUMP JUMPDEST PUSH2 0x83C JUMP JUMPDEST PUSH2 0x245 PUSH2 0x39F CALLDATASIZE PUSH1 0x4 PUSH2 0x1537 JUMP JUMPDEST PUSH2 0x87A JUMP JUMPDEST PUSH1 0x0 PUSH1 0x1 PUSH1 0x1 PUSH1 0xE0 SHL SUB NOT DUP3 AND PUSH4 0x24832483 PUSH1 0xE1 SHL EQ DUP1 PUSH2 0x3C9 JUMPI POP PUSH2 0x3C9 DUP3 PUSH2 0x9E3 JUMP JUMPDEST SWAP3 SWAP2 POP POP JUMP JUMPDEST PUSH1 0x60 PUSH1 0x0 DUP1 SLOAD PUSH2 0x3DE SWAP1 PUSH2 0x1580 JUMP JUMPDEST DUP1 PUSH1 0x1F ADD PUSH1 0x20 DUP1 SWAP2 DIV MUL PUSH1 0x20 ADD PUSH1 0x40 MLOAD SWAP1 DUP2 ADD PUSH1 0x40 MSTORE DUP1 SWAP3 SWAP2 SWAP1 DUP2 DUP2 MSTORE PUSH1 0x20 ADD DUP3 DUP1 SLOAD PUSH2 0x40A SWAP1 PUSH2 0x1580 JUMP JUMPDEST DUP1 ISZERO PUSH2 0x457 JUMPI DUP1 PUSH1 0x1F LT PUSH2 0x42C JUMPI PUSH2 0x100 DUP1 DUP4 SLOAD DIV MUL DUP4 MSTORE SWAP2 PUSH1 0x20 ADD SWAP2 PUSH2 0x457 JUMP JUMPDEST DUP3 ADD SWAP2 SWAP1 PUSH1 0x0 MSTORE PUSH1 0x20 PUSH1 0x0 KECCAK256 SWAP1 JUMPDEST DUP2 SLOAD DUP2 MSTORE SWAP1 PUSH1 0x1 ADD SWAP1 PUSH1 0x20 ADD DUP1 DUP4 GT PUSH2 0x43A JUMPI DUP3 SWAP1 SUB PUSH1 0x1F AND DUP3 ADD SWAP2 JUMPDEST POP POP POP POP POP SWAP1 POP SWAP1 JUMP JUMPDEST PUSH1 0x0 PUSH2 0x46C DUP3 PUSH2 0xA33 JUMP JUMPDEST POP PUSH1 0x0 DUP3 DUP2 MSTORE PUSH1 0x4 PUSH1 0x20 MSTORE PUSH1 0x40 SWAP1 KECCAK256 SLOAD PUSH1 0x1 PUSH1 0x1 PUSH1 0xA0 SHL SUB AND PUSH2 0x3C9 JUMP JUMPDEST PUSH2 0x495 DUP3 DUP3 CALLER PUSH2 0xA6C JUMP JUMPDEST POP POP JUMP JUMPDEST PUSH1 0x1 PUSH1 0x1 PUSH1 0xA0 SHL SUB DUP3 AND PUSH2 0x4C8 JUMPI PUSH1 0x40 MLOAD PUSH4 0x32505749 PUSH1 0xE1 SHL DUP2 MSTORE PUSH1 0x0 PUSH1 0x4 DUP3 ADD MSTORE PUSH1 0x24 ADD JUMPDEST PUSH1 0x40 MLOAD DUP1 SWAP2 SUB SWAP1 REVERT JUMPDEST PUSH1 0x0 PUSH2 0x4D5 DUP4 DUP4 CALLER PUSH2 0xA79 JUMP JUMPDEST SWAP1 POP DUP4 PUSH1 0x1 PUSH1 0x1 PUSH1 0xA0 SHL SUB AND DUP2 PUSH1 0x1 PUSH1 0x1 PUSH1 0xA0 SHL SUB AND EQ PUSH2 0x523 JUMPI PUSH1 0x40 MLOAD PUSH4 0x64283D7B PUSH1 0xE0 SHL DUP2 MSTORE PUSH1 0x1 PUSH1 0x1 PUSH1 0xA0 SHL SUB DUP1 DUP7 AND PUSH1 0x4 DUP4 ADD MSTORE PUSH1 0x24 DUP3 ADD DUP5 SWAP1 MSTORE DUP3 AND PUSH1 0x44 DUP3 ADD MSTORE PUSH1 0x64 ADD PUSH2 0x4BF JUMP JUMPDEST POP POP POP POP JUMP JUMPDEST PUSH2 0x531 PUSH2 0xB72 JUMP JUMPDEST PUSH2 0x539 PUSH2 0xB9C JUMP JUMPDEST SELFBALANCE PUSH1 0x0 PUSH2 0x54E PUSH1 0x7 SLOAD PUSH1 0x1 PUSH1 0x1 PUSH1 0xA0 SHL SUB AND SWAP1 JUMP JUMPDEST PUSH1 0x1 PUSH1 0x1 PUSH1 0xA0 SHL SUB AND DUP3 PUSH1 0x40 MLOAD PUSH1 0x0 PUSH1 0x40 MLOAD DUP1 DUP4 SUB DUP2 DUP6 DUP8 GAS CALL SWAP3 POP POP POP RETURNDATASIZE DUP1 PUSH1 0x0 DUP2 EQ PUSH2 0x598 JUMPI PUSH1 0x40 MLOAD SWAP2 POP PUSH1 0x1F NOT PUSH1 0x3F RETURNDATASIZE ADD AND DUP3 ADD PUSH1 0x40 MSTORE RETURNDATASIZE DUP3 MSTORE RETURNDATASIZE PUSH1 0x0 PUSH1 0x20 DUP5 ADD RETURNDATACOPY PUSH2 0x59D JUMP JUMPDEST PUSH1 0x60 SWAP2 POP JUMPDEST POP POP SWAP1 POP DUP1 PUSH2 0x5E4 JUMPI PUSH1 0x40 MLOAD PUSH3 0x461BCD PUSH1 0xE5 SHL DUP2 MSTORE PUSH1 0x20 PUSH1 0x4 DUP3 ADD MSTORE PUSH1 0x13 PUSH1 0x24 DUP3 ADD MSTORE PUSH19 0x115512081D1C985B9CD9995C8819985A5B1959 PUSH1 0x6A SHL PUSH1 0x44 DUP3 ADD MSTORE PUSH1 0x64 ADD PUSH2 0x4BF JUMP JUMPDEST PUSH32 0x7084F5476618D8E60B11EF0D7D3F06914655ADB8793E28FF7F018D4C76D505D5 PUSH2 0x617 PUSH1 0x7 SLOAD PUSH1 0x1 PUSH1 0x1 PUSH1 0xA0 SHL SUB AND SWAP1 JUMP JUMPDEST PUSH1 0x40 DUP1 MLOAD PUSH1 0x1 PUSH1 0x1 PUSH1 0xA0 SHL SUB SWAP1 SWAP3 AND DUP3 MSTORE PUSH1 0x20 DUP3 ADD DUP6 SWAP1 MSTORE ADD PUSH1 0x40 MLOAD DUP1 SWAP2 SUB SWAP1 LOG1 POP POP PUSH2 0x644 PUSH1 0x1 PUSH1 0x8 SSTORE JUMP JUMPDEST JUMP JUMPDEST PUSH2 0x661 DUP4 DUP4 DUP4 PUSH1 0x40 MLOAD DUP1 PUSH1 0x20 ADD PUSH1 0x40 MSTORE DUP1 PUSH1 0x0 DUP2 MSTORE POP PUSH2 0x6E5 JUMP JUMPDEST POP POP POP JUMP JUMPDEST PUSH1 0x0 PUSH2 0x3C9 DUP3 PUSH2 0xA33 JUMP JUMPDEST PUSH1 0x0 PUSH1 0x1 PUSH1 0x1 PUSH1 0xA0 SHL SUB DUP3 AND PUSH2 0x69D JUMPI PUSH1 0x40 MLOAD PUSH4 0x22718AD9 PUSH1 0xE2 SHL DUP2 MSTORE PUSH1 0x0 PUSH1 0x4 DUP3 ADD MSTORE PUSH1 0x24 ADD PUSH2 0x4BF JUMP JUMPDEST POP PUSH1 0x1 PUSH1 0x1 PUSH1 0xA0 SHL SUB AND PUSH1 0x0 SWAP1 DUP2 MSTORE PUSH1 0x3 PUSH1 0x20 MSTORE PUSH1 0x40 SWAP1 KECCAK256 SLOAD SWAP1 JUMP JUMPDEST PUSH2 0x6C1 PUSH2 0xB9C JUMP JUMPDEST PUSH2 0x644 PUSH1 0x0 PUSH2 0xBC9 JUMP JUMPDEST PUSH1 0x60 PUSH1 0x1 DUP1 SLOAD PUSH2 0x3DE SWAP1 PUSH2 0x1580 JUMP JUMPDEST PUSH2 0x495 CALLER DUP4 DUP4 PUSH2 0xC1B JUMP JUMPDEST PUSH2 0x6F0 DUP5 DUP5 DUP5 PUSH2 0x499 JUMP JUMPDEST PUSH2 0x523 CALLER DUP6 DUP6 DUP6 DUP6 PUSH2 0xCBA JUMP JUMPDEST PUSH1 0x60 PUSH2 0x708 DUP3 PUSH2 0xA33 JUMP JUMPDEST POP PUSH1 0x0 DUP3 DUP2 MSTORE PUSH1 0x6 PUSH1 0x20 MSTORE PUSH1 0x40 DUP2 KECCAK256 DUP1 SLOAD PUSH2 0x722 SWAP1 PUSH2 0x1580 JUMP JUMPDEST DUP1 PUSH1 0x1F ADD PUSH1 0x20 DUP1 SWAP2 DIV MUL PUSH1 0x20 ADD PUSH1 0x40 MLOAD SWAP1 DUP2 ADD PUSH1 0x40 MSTORE DUP1 SWAP3 SWAP2 SWAP1 DUP2 DUP2 MSTORE PUSH1 0x20 ADD DUP3 DUP1 SLOAD PUSH2 0x74E SWAP1 PUSH2 0x1580 JUMP JUMPDEST DUP1 ISZERO PUSH2 0x79B JUMPI DUP1 PUSH1 0x1F LT PUSH2 0x770 JUMPI PUSH2 0x100 DUP1 DUP4 SLOAD DIV MUL DUP4 MSTORE SWAP2 PUSH1 0x20 ADD SWAP2 PUSH2 0x79B JUMP JUMPDEST DUP3 ADD SWAP2 SWAP1 PUSH1 0x0 MSTORE PUSH1 0x20 PUSH1 0x0 KECCAK256 SWAP1 JUMPDEST DUP2 SLOAD DUP2 MSTORE SWAP1 PUSH1 0x1 ADD SWAP1 PUSH1 0x20 ADD DUP1 DUP4 GT PUSH2 0x77E JUMPI DUP3 SWAP1 SUB PUSH1 0x1F AND DUP3 ADD SWAP2 JUMPDEST POP POP POP POP POP SWAP1 POP PUSH1 0x0 PUSH2 0x7B9 PUSH1 0x40 DUP1 MLOAD PUSH1 0x20 DUP2 ADD SWAP1 SWAP2 MSTORE PUSH1 0x0 DUP2 MSTORE SWAP1 JUMP JUMPDEST SWAP1 POP DUP1 MLOAD PUSH1 0x0 SUB PUSH2 0x7CB JUMPI POP SWAP3 SWAP2 POP POP JUMP JUMPDEST DUP2 MLOAD ISZERO PUSH2 0x7FD JUMPI DUP1 DUP3 PUSH1 0x40 MLOAD PUSH1 0x20 ADD PUSH2 0x7E5 SWAP3 SWAP2 SWAP1 PUSH2 0x15BA JUMP JUMPDEST PUSH1 0x40 MLOAD PUSH1 0x20 DUP2 DUP4 SUB SUB DUP2 MSTORE SWAP1 PUSH1 0x40 MSTORE SWAP3 POP POP POP SWAP2 SWAP1 POP JUMP JUMPDEST PUSH2 0x806 DUP5 PUSH2 0xDE5 JUMP JUMPDEST SWAP5 SWAP4 POP POP POP POP JUMP JUMPDEST PUSH1 0x1 PUSH1 0x1 PUSH1 0xA0 SHL SUB SWAP2 DUP3 AND PUSH1 0x0 SWAP1 DUP2 MSTORE PUSH1 0x5 PUSH1 0x20 SWAP1 DUP2 MSTORE PUSH1 0x40 DUP1 DUP4 KECCAK256 SWAP4 SWAP1 SWAP5 AND DUP3 MSTORE SWAP2 SWAP1 SWAP2 MSTORE KECCAK256 SLOAD PUSH1 0xFF AND SWAP1 JUMP JUMPDEST PUSH2 0x844 PUSH2 0xB9C JUMP JUMPDEST PUSH1 0x1 PUSH1 0x1 PUSH1 0xA0 SHL SUB DUP2 AND PUSH2 0x86E JUMPI PUSH1 0x40 MLOAD PUSH4 0x1E4FBDF7 PUSH1 0xE0 SHL DUP2 MSTORE PUSH1 0x0 PUSH1 0x4 DUP3 ADD MSTORE PUSH1 0x24 ADD PUSH2 0x4BF JUMP JUMPDEST PUSH2 0x877 DUP2 PUSH2 0xBC9 JUMP JUMPDEST POP JUMP JUMPDEST PUSH1 0x0 PUSH2 0x884 PUSH2 0xB72 JUMP JUMPDEST PUSH7 0x2386F26FC10000 CALLVALUE LT ISZERO PUSH2 0x8D4 JUMPI PUSH1 0x40 MLOAD PUSH3 0x461BCD PUSH1 0xE5 SHL DUP2 MSTORE PUSH1 0x20 PUSH1 0x4 DUP3 ADD MSTORE PUSH1 0x16 PUSH1 0x24 DUP3 ADD MSTORE PUSH22 0x139BDD08195B9BDD59DA08115512081D1BC81B5A5B9D PUSH1 0x52 SHL PUSH1 0x44 DUP3 ADD MSTORE PUSH1 0x64 ADD PUSH2 0x4BF JUMP JUMPDEST PUSH1 0x9 DUP1 SLOAD PUSH1 0x1 DUP2 ADD SWAP1 SWAP2 SSTORE PUSH2 0x8E9 CALLER DUP3 PUSH2 0xE5A JUMP JUMPDEST PUSH2 0x8F3 DUP2 DUP5 PUSH2 0xE74 JUMP JUMPDEST PUSH1 0x0 PUSH2 0x906 PUSH7 0x2386F26FC10000 CALLVALUE PUSH2 0x15E9 JUMP JUMPDEST SWAP1 POP DUP1 ISZERO PUSH2 0x998 JUMPI PUSH1 0x40 MLOAD PUSH1 0x0 SWAP1 CALLER SWAP1 DUP4 SWAP1 DUP4 DUP2 DUP2 DUP2 DUP6 DUP8 GAS CALL SWAP3 POP POP POP RETURNDATASIZE DUP1 PUSH1 0x0 DUP2 EQ PUSH2 0x950 JUMPI PUSH1 0x40 MLOAD SWAP2 POP PUSH1 0x1F NOT PUSH1 0x3F RETURNDATASIZE ADD AND DUP3 ADD PUSH1 0x40 MSTORE RETURNDATASIZE DUP3 MSTORE RETURNDATASIZE PUSH1 0x0 PUSH1 0x20 DUP5 ADD RETURNDATACOPY PUSH2 0x955 JUMP JUMPDEST PUSH1 0x60 SWAP2 POP JUMPDEST POP POP SWAP1 POP DUP1 PUSH2 0x996 JUMPI PUSH1 0x40 MLOAD PUSH3 0x461BCD PUSH1 0xE5 SHL DUP2 MSTORE PUSH1 0x20 PUSH1 0x4 DUP3 ADD MSTORE PUSH1 0xD PUSH1 0x24 DUP3 ADD MSTORE PUSH13 0x1499599D5B990819985A5B1959 PUSH1 0x9A SHL PUSH1 0x44 DUP3 ADD MSTORE PUSH1 0x64 ADD PUSH2 0x4BF JUMP JUMPDEST POP JUMPDEST PUSH32 0x84FEDAFD9490D60FF476D007409FC8709CE33B506D702CDDBF1E37B1DC5FC2EF DUP5 DUP4 PUSH1 0x40 MLOAD PUSH2 0x9C9 SWAP3 SWAP2 SWAP1 PUSH2 0x160A JUMP JUMPDEST PUSH1 0x40 MLOAD DUP1 SWAP2 SUB SWAP1 LOG1 POP SWAP1 POP PUSH2 0x9DE PUSH1 0x1 PUSH1 0x8 SSTORE JUMP JUMPDEST SWAP2 SWAP1 POP JUMP JUMPDEST PUSH1 0x0 PUSH1 0x1 PUSH1 0x1 PUSH1 0xE0 SHL SUB NOT DUP3 AND PUSH4 0x80AC58CD PUSH1 0xE0 SHL EQ DUP1 PUSH2 0xA14 JUMPI POP PUSH1 0x1 PUSH1 0x1 PUSH1 0xE0 SHL SUB NOT DUP3 AND PUSH4 0x5B5E139F PUSH1 0xE0 SHL EQ JUMPDEST DUP1 PUSH2 0x3C9 JUMPI POP PUSH4 0x1FFC9A7 PUSH1 0xE0 SHL PUSH1 0x1 PUSH1 0x1 PUSH1 0xE0 SHL SUB NOT DUP4 AND EQ PUSH2 0x3C9 JUMP JUMPDEST PUSH1 0x0 DUP2 DUP2 MSTORE PUSH1 0x2 PUSH1 0x20 MSTORE PUSH1 0x40 DUP2 KECCAK256 SLOAD PUSH1 0x1 PUSH1 0x1 PUSH1 0xA0 SHL SUB AND DUP1 PUSH2 0x3C9 JUMPI PUSH1 0x40 MLOAD PUSH4 0x7E273289 PUSH1 0xE0 SHL DUP2 MSTORE PUSH1 0x4 DUP2 ADD DUP5 SWAP1 MSTORE PUSH1 0x24 ADD PUSH2 0x4BF JUMP JUMPDEST PUSH2 0x661 DUP4 DUP4 DUP4 PUSH1 0x1 PUSH2 0xEC4 JUMP JUMPDEST PUSH1 0x0 DUP3 DUP2 MSTORE PUSH1 0x2 PUSH1 0x20 MSTORE PUSH1 0x40 DUP2 KECCAK256 SLOAD PUSH1 0x1 PUSH1 0x1 PUSH1 0xA0 SHL SUB SWAP1 DUP2 AND SWAP1 DUP4 AND ISZERO PUSH2 0xAA6 JUMPI PUSH2 0xAA6 DUP2 DUP5 DUP7 PUSH2 0xFCA JUMP JUMPDEST PUSH1 0x1 PUSH1 0x1 PUSH1 0xA0 SHL SUB DUP2 AND ISZERO PUSH2 0xAE4 JUMPI PUSH2 0xAC3 PUSH1 0x0 DUP6 PUSH1 0x0 DUP1 PUSH2 0xEC4 JUMP JUMPDEST PUSH1 0x1 PUSH1 0x1 PUSH1 0xA0 SHL SUB DUP2 AND PUSH1 0x0 SWAP1 DUP2 MSTORE PUSH1 0x3 PUSH1 0x20 MSTORE PUSH1 0x40 SWAP1 KECCAK256 DUP1 SLOAD PUSH1 0x0 NOT ADD SWAP1 SSTORE JUMPDEST PUSH1 0x1 PUSH1 0x1 PUSH1 0xA0 SHL SUB DUP6 AND ISZERO PUSH2 0xB13 JUMPI PUSH1 0x1 PUSH1 0x1 PUSH1 0xA0 SHL SUB DUP6 AND PUSH1 0x0 SWAP1 DUP2 MSTORE PUSH1 0x3 PUSH1 0x20 MSTORE PUSH1 0x40 SWAP1 KECCAK256 DUP1 SLOAD PUSH1 0x1 ADD SWAP1 SSTORE JUMPDEST PUSH1 0x0 DUP5 DUP2 MSTORE PUSH1 0x2 PUSH1 0x20 MSTORE PUSH1 0x40 DUP1 DUP3 KECCAK256 DUP1 SLOAD PUSH1 0x1 PUSH1 0x1 PUSH1 0xA0 SHL SUB NOT AND PUSH1 0x1 PUSH1 0x1 PUSH1 0xA0 SHL SUB DUP10 DUP2 AND SWAP2 DUP3 OR SWAP1 SWAP3 SSTORE SWAP2 MLOAD DUP8 SWAP4 SWAP2 DUP6 AND SWAP2 PUSH32 0xDDF252AD1BE2C89B69C2B068FC378DAA952BA7F163C4A11628F55A4DF523B3EF SWAP2 LOG4 SWAP5 SWAP4 POP POP POP POP JUMP JUMPDEST PUSH1 0x2 PUSH1 0x8 SLOAD SUB PUSH2 0xB95 JUMPI PUSH1 0x40 MLOAD PUSH4 0x3EE5AEB5 PUSH1 0xE0 SHL DUP2 MSTORE PUSH1 0x4 ADD PUSH1 0x40 MLOAD DUP1 SWAP2 SUB SWAP1 REVERT JUMPDEST PUSH1 0x2 PUSH1 0x8 SSTORE JUMP JUMPDEST PUSH1 0x7 SLOAD PUSH1 0x1 PUSH1 0x1 PUSH1 0xA0 SHL SUB AND CALLER EQ PUSH2 0x644 JUMPI PUSH1 0x40 MLOAD PUSH4 0x118CDAA7 PUSH1 0xE0 SHL DUP2 MSTORE CALLER PUSH1 0x4 DUP3 ADD MSTORE PUSH1 0x24 ADD PUSH2 0x4BF JUMP JUMPDEST PUSH1 0x7 DUP1 SLOAD PUSH1 0x1 PUSH1 0x1 PUSH1 0xA0 SHL SUB DUP4 DUP2 AND PUSH1 0x1 PUSH1 0x1 PUSH1 0xA0 SHL SUB NOT DUP4 AND DUP2 OR SWAP1 SWAP4 SSTORE PUSH1 0x40 MLOAD SWAP2 AND SWAP2 SWAP1 DUP3 SWAP1 PUSH32 0x8BE0079C531659141344CD1FD0A4F28419497F9722A3DAAFE3B4186F6B6457E0 SWAP1 PUSH1 0x0 SWAP1 LOG3 POP POP JUMP JUMPDEST PUSH1 0x1 PUSH1 0x1 PUSH1 0xA0 SHL SUB DUP3 AND PUSH2 0xC4D JUMPI PUSH1 0x40 MLOAD PUSH4 0xB611743 PUSH1 0xE3 SHL DUP2 MSTORE PUSH1 0x1 PUSH1 0x1 PUSH1 0xA0 SHL SUB DUP4 AND PUSH1 0x4 DUP3 ADD MSTORE PUSH1 0x24 ADD PUSH2 0x4BF JUMP JUMPDEST PUSH1 0x1 PUSH1 0x1 PUSH1 0xA0 SHL SUB DUP4 DUP2 AND PUSH1 0x0 DUP2 DUP2 MSTORE PUSH1 0x5 PUSH1 0x20 SWAP1 DUP2 MSTORE PUSH1 0x40 DUP1 DUP4 KECCAK256 SWAP5 DUP8 AND DUP1 DUP5 MSTORE SWAP5 DUP3 MSTORE SWAP2 DUP3 SWAP1 KECCAK256 DUP1 SLOAD PUSH1 0xFF NOT AND DUP7 ISZERO ISZERO SWAP1 DUP2 OR SWAP1 SWAP2 SSTORE SWAP2 MLOAD SWAP2 DUP3 MSTORE PUSH32 0x17307EAB39AB6107E8899845AD3D59BD9653F200F220920489CA2B5937696C31 SWAP2 ADD PUSH1 0x40 MLOAD DUP1 SWAP2 SUB SWAP1 LOG3 POP POP POP JUMP JUMPDEST PUSH1 0x1 PUSH1 0x1 PUSH1 0xA0 SHL SUB DUP4 AND EXTCODESIZE ISZERO PUSH2 0xDDE JUMPI PUSH1 0x40 MLOAD PUSH4 0xA85BD01 PUSH1 0xE1 SHL DUP2 MSTORE PUSH1 0x1 PUSH1 0x1 PUSH1 0xA0 SHL SUB DUP5 AND SWAP1 PUSH4 0x150B7A02 SWAP1 PUSH2 0xCFC SWAP1 DUP9 SWAP1 DUP9 SWAP1 DUP8 SWAP1 DUP8 SWAP1 PUSH1 0x4 ADD PUSH2 0x162C JUMP JUMPDEST PUSH1 0x20 PUSH1 0x40 MLOAD DUP1 DUP4 SUB DUP2 PUSH1 0x0 DUP8 GAS CALL SWAP3 POP POP POP DUP1 ISZERO PUSH2 0xD37 JUMPI POP PUSH1 0x40 DUP1 MLOAD PUSH1 0x1F RETURNDATASIZE SWAP1 DUP2 ADD PUSH1 0x1F NOT AND DUP3 ADD SWAP1 SWAP3 MSTORE PUSH2 0xD34 SWAP2 DUP2 ADD SWAP1 PUSH2 0x1669 JUMP JUMPDEST PUSH1 0x1 JUMPDEST PUSH2 0xDA0 JUMPI RETURNDATASIZE DUP1 DUP1 ISZERO PUSH2 0xD65 JUMPI PUSH1 0x40 MLOAD SWAP2 POP PUSH1 0x1F NOT PUSH1 0x3F RETURNDATASIZE ADD AND DUP3 ADD PUSH1 0x40 MSTORE RETURNDATASIZE DUP3 MSTORE RETURNDATASIZE PUSH1 0x0 PUSH1 0x20 DUP5 ADD RETURNDATACOPY PUSH2 0xD6A JUMP JUMPDEST PUSH1 0x60 SWAP2 POP JUMPDEST POP DUP1 MLOAD PUSH1 0x0 SUB PUSH2 0xD98 JUMPI PUSH1 0x40 MLOAD PUSH4 0x32505749 PUSH1 0xE1 SHL DUP2 MSTORE PUSH1 0x1 PUSH1 0x1 PUSH1 0xA0 SHL SUB DUP6 AND PUSH1 0x4 DUP3 ADD MSTORE PUSH1 0x24 ADD PUSH2 0x4BF JUMP JUMPDEST DUP1 MLOAD DUP2 PUSH1 0x20 ADD REVERT JUMPDEST PUSH1 0x1 PUSH1 0x1 PUSH1 0xE0 SHL SUB NOT DUP2 AND PUSH4 0xA85BD01 PUSH1 0xE1 SHL EQ PUSH2 0xDDC JUMPI PUSH1 0x40 MLOAD PUSH4 0x32505749 PUSH1 0xE1 SHL DUP2 MSTORE PUSH1 0x1 PUSH1 0x1 PUSH1 0xA0 SHL SUB DUP6 AND PUSH1 0x4 DUP3 ADD MSTORE PUSH1 0x24 ADD PUSH2 0x4BF JUMP JUMPDEST POP JUMPDEST POP POP POP POP POP JUMP JUMPDEST PUSH1 0x60 PUSH2 0xDF0 DUP3 PUSH2 0xA33 JUMP JUMPDEST POP PUSH1 0x0 PUSH2 0xE08 PUSH1 0x40 DUP1 MLOAD PUSH1 0x20 DUP2 ADD SWAP1 SWAP2 MSTORE PUSH1 0x0 DUP2 MSTORE SWAP1 JUMP JUMPDEST SWAP1 POP PUSH1 0x0 DUP2 MLOAD GT PUSH2 0xE28 JUMPI PUSH1 0x40 MLOAD DUP1 PUSH1 0x20 ADD PUSH1 0x40 MSTORE DUP1 PUSH1 0x0 DUP2 MSTORE POP PUSH2 0xE53 JUMP JUMPDEST DUP1 PUSH2 0xE32 DUP5 PUSH2 0x102E JUMP JUMPDEST PUSH1 0x40 MLOAD PUSH1 0x20 ADD PUSH2 0xE43 SWAP3 SWAP2 SWAP1 PUSH2 0x15BA JUMP JUMPDEST PUSH1 0x40 MLOAD PUSH1 0x20 DUP2 DUP4 SUB SUB DUP2 MSTORE SWAP1 PUSH1 0x40 MSTORE JUMPDEST SWAP4 SWAP3 POP POP POP JUMP JUMPDEST PUSH2 0x495 DUP3 DUP3 PUSH1 0x40 MLOAD DUP1 PUSH1 0x20 ADD PUSH1 0x40 MSTORE DUP1 PUSH1 0x0 DUP2 MSTORE POP PUSH2 0x10C1 JUMP JUMPDEST PUSH1 0x0 DUP3 DUP2 MSTORE PUSH1 0x6 PUSH1 0x20 MSTORE PUSH1 0x40 SWAP1 KECCAK256 PUSH2 0xE8C DUP3 DUP3 PUSH2 0x16CC JUMP JUMPDEST POP PUSH1 0x40 MLOAD DUP3 DUP2 MSTORE PUSH32 0xF8E1A15ABA9398E019F0B49DF1A4FDE98EE17AE345CB5F6B5E2C27F5033E8CE7 SWAP1 PUSH1 0x20 ADD PUSH1 0x40 MLOAD DUP1 SWAP2 SUB SWAP1 LOG1 POP POP JUMP JUMPDEST DUP1 DUP1 PUSH2 0xED8 JUMPI POP PUSH1 0x1 PUSH1 0x1 PUSH1 0xA0 SHL SUB DUP3 AND ISZERO ISZERO JUMPDEST ISZERO PUSH2 0xF9A JUMPI PUSH1 0x0 PUSH2 0xEE8 DUP5 PUSH2 0xA33 JUMP JUMPDEST SWAP1 POP PUSH1 0x1 PUSH1 0x1 PUSH1 0xA0 SHL SUB DUP4 AND ISZERO DUP1 ISZERO SWAP1 PUSH2 0xF14 JUMPI POP DUP3 PUSH1 0x1 PUSH1 0x1 PUSH1 0xA0 SHL SUB AND DUP2 PUSH1 0x1 PUSH1 0x1 PUSH1 0xA0 SHL SUB AND EQ ISZERO JUMPDEST DUP1 ISZERO PUSH2 0xF27 JUMPI POP PUSH2 0xF25 DUP2 DUP5 PUSH2 0x80E JUMP JUMPDEST ISZERO JUMPDEST ISZERO PUSH2 0xF50 JUMPI PUSH1 0x40 MLOAD PUSH4 0xA9FBF51F PUSH1 0xE0 SHL DUP2 MSTORE PUSH1 0x1 PUSH1 0x1 PUSH1 0xA0 SHL SUB DUP5 AND PUSH1 0x4 DUP3 ADD MSTORE PUSH1 0x24 ADD PUSH2 0x4BF JUMP JUMPDEST DUP2 ISZERO PUSH2 0xF98 JUMPI DUP4 DUP6 PUSH1 0x1 PUSH1 0x1 PUSH1 0xA0 SHL SUB AND DUP3 PUSH1 0x1 PUSH1 0x1 PUSH1 0xA0 SHL SUB AND PUSH32 0x8C5BE1E5EBEC7D5BD14F71427D1E84F3DD0314C0F7B2291E5B200AC8C7C3B925 PUSH1 0x40 MLOAD PUSH1 0x40 MLOAD DUP1 SWAP2 SUB SWAP1 LOG4 JUMPDEST POP JUMPDEST POP POP PUSH1 0x0 SWAP1 DUP2 MSTORE PUSH1 0x4 PUSH1 0x20 MSTORE PUSH1 0x40 SWAP1 KECCAK256 DUP1 SLOAD PUSH1 0x1 PUSH1 0x1 PUSH1 0xA0 SHL SUB NOT AND PUSH1 0x1 PUSH1 0x1 PUSH1 0xA0 SHL SUB SWAP3 SWAP1 SWAP3 AND SWAP2 SWAP1 SWAP2 OR SWAP1 SSTORE JUMP JUMPDEST PUSH2 0xFD5 DUP4 DUP4 DUP4 PUSH2 0x10D9 JUMP JUMPDEST PUSH2 0x661 JUMPI PUSH1 0x1 PUSH1 0x1 PUSH1 0xA0 SHL SUB DUP4 AND PUSH2 0x1003 JUMPI PUSH1 0x40 MLOAD PUSH4 0x7E273289 PUSH1 0xE0 SHL DUP2 MSTORE PUSH1 0x4 DUP2 ADD DUP3 SWAP1 MSTORE PUSH1 0x24 ADD PUSH2 0x4BF JUMP JUMPDEST PUSH1 0x40 MLOAD PUSH4 0x177E802F PUSH1 0xE0 SHL DUP2 MSTORE PUSH1 0x1 PUSH1 0x1 PUSH1 0xA0 SHL SUB DUP4 AND PUSH1 0x4 DUP3 ADD MSTORE PUSH1 0x24 DUP2 ADD DUP3 SWAP1 MSTORE PUSH1 0x44 ADD PUSH2 0x4BF JUMP JUMPDEST PUSH1 0x60 PUSH1 0x0 PUSH2 0x103B DUP4 PUSH2 0x113C JUMP JUMPDEST PUSH1 0x1 ADD SWAP1 POP PUSH1 0x0 DUP2 PUSH8 0xFFFFFFFFFFFFFFFF DUP2 GT ISZERO PUSH2 0x105B JUMPI PUSH2 0x105B PUSH2 0x13FC JUMP JUMPDEST PUSH1 0x40 MLOAD SWAP1 DUP1 DUP3 MSTORE DUP1 PUSH1 0x1F ADD PUSH1 0x1F NOT AND PUSH1 0x20 ADD DUP3 ADD PUSH1 0x40 MSTORE DUP1 ISZERO PUSH2 0x1085 JUMPI PUSH1 0x20 DUP3 ADD DUP2 DUP1 CALLDATASIZE DUP4 CALLDATACOPY ADD SWAP1 POP JUMPDEST POP SWAP1 POP DUP2 DUP2 ADD PUSH1 0x20 ADD JUMPDEST PUSH1 0x0 NOT ADD PUSH16 0x181899199A1A9B1B9C1CB0B131B232B3 PUSH1 0x81 SHL PUSH1 0xA DUP7 MOD BYTE DUP2 MSTORE8 PUSH1 0xA DUP6 DIV SWAP5 POP DUP5 PUSH2 0x108F JUMPI POP SWAP4 SWAP3 POP POP POP JUMP JUMPDEST PUSH2 0x10CB DUP4 DUP4 PUSH2 0x1214 JUMP JUMPDEST PUSH2 0x661 CALLER PUSH1 0x0 DUP6 DUP6 DUP6 PUSH2 0xCBA JUMP JUMPDEST PUSH1 0x0 PUSH1 0x1 PUSH1 0x1 PUSH1 0xA0 SHL SUB DUP4 AND ISZERO DUP1 ISZERO SWAP1 PUSH2 0x806 JUMPI POP DUP3 PUSH1 0x1 PUSH1 0x1 PUSH1 0xA0 SHL SUB AND DUP5 PUSH1 0x1 PUSH1 0x1 PUSH1 0xA0 SHL SUB AND EQ DUP1 PUSH2 0x1113 JUMPI POP PUSH2 0x1113 DUP5 DUP5 PUSH2 0x80E JUMP JUMPDEST DUP1 PUSH2 0x806 JUMPI POP POP PUSH1 0x0 SWAP1 DUP2 MSTORE PUSH1 0x4 PUSH1 0x20 MSTORE PUSH1 0x40 SWAP1 KECCAK256 SLOAD PUSH1 0x1 PUSH1 0x1 PUSH1 0xA0 SHL SUB SWAP1 DUP2 AND SWAP2 AND EQ SWAP2 SWAP1 POP JUMP JUMPDEST PUSH1 0x0 DUP1 PUSH19 0x184F03E93FF9F4DAA797ED6E38ED64BF6A1F01 PUSH1 0x40 SHL DUP4 LT PUSH2 0x117B JUMPI PUSH19 0x184F03E93FF9F4DAA797ED6E38ED64BF6A1F01 PUSH1 0x40 SHL DUP4 DIV SWAP3 POP PUSH1 0x40 ADD JUMPDEST PUSH14 0x4EE2D6D415B85ACEF8100000000 DUP4 LT PUSH2 0x11A7 JUMPI PUSH14 0x4EE2D6D415B85ACEF8100000000 DUP4 DIV SWAP3 POP PUSH1 0x20 ADD JUMPDEST PUSH7 0x2386F26FC10000 DUP4 LT PUSH2 0x11C5 JUMPI PUSH7 0x2386F26FC10000 DUP4 DIV SWAP3 POP PUSH1 0x10 ADD JUMPDEST PUSH4 0x5F5E100 DUP4 LT PUSH2 0x11DD JUMPI PUSH4 0x5F5E100 DUP4 DIV SWAP3 POP PUSH1 0x8 ADD JUMPDEST PUSH2 0x2710 DUP4 LT PUSH2 0x11F1 JUMPI PUSH2 0x2710 DUP4 DIV SWAP3 POP PUSH1 0x4 ADD JUMPDEST PUSH1 0x64 DUP4 LT PUSH2 0x1203 JUMPI PUSH1 0x64 DUP4 DIV SWAP3 POP PUSH1 0x2 ADD JUMPDEST PUSH1 0xA DUP4 LT PUSH2 0x3C9 JUMPI PUSH1 0x1 ADD SWAP3 SWAP2 POP POP JUMP JUMPDEST PUSH1 0x1 PUSH1 0x1 PUSH1 0xA0 SHL SUB DUP3 AND PUSH2 0x123E JUMPI PUSH1 0x40 MLOAD PUSH4 0x32505749 PUSH1 0xE1 SHL DUP2 MSTORE PUSH1 0x0 PUSH1 0x4 DUP3 ADD MSTORE PUSH1 0x24 ADD PUSH2 0x4BF JUMP JUMPDEST PUSH1 0x0 PUSH2 0x124C DUP4 DUP4 PUSH1 0x0 PUSH2 0xA79 JUMP JUMPDEST SWAP1 POP PUSH1 0x1 PUSH1 0x1 PUSH1 0xA0 SHL SUB DUP2 AND ISZERO PUSH2 0x661 JUMPI PUSH1 0x40 MLOAD PUSH4 0x39E35637 PUSH1 0xE1 SHL DUP2 MSTORE PUSH1 0x0 PUSH1 0x4 DUP3 ADD MSTORE PUSH1 0x24 ADD PUSH2 0x4BF JUMP JUMPDEST PUSH1 0x1 PUSH1 0x1 PUSH1 0xE0 SHL SUB NOT DUP2 AND DUP2 EQ PUSH2 0x877 JUMPI PUSH1 0x0 DUP1 REVERT JUMPDEST PUSH1 0x0 PUSH1 0x20 DUP3 DUP5 SUB SLT ISZERO PUSH2 0x12A1 JUMPI PUSH1 0x0 DUP1 REVERT JUMPDEST DUP2 CALLDATALOAD PUSH2 0xE53 DUP2 PUSH2 0x1279 JUMP JUMPDEST PUSH1 0x0 JUMPDEST DUP4 DUP2 LT ISZERO PUSH2 0x12C7 JUMPI DUP2 DUP2 ADD MLOAD DUP4 DUP3 ADD MSTORE PUSH1 0x20 ADD PUSH2 0x12AF JUMP JUMPDEST POP POP PUSH1 0x0 SWAP2 ADD MSTORE JUMP JUMPDEST PUSH1 0x0 DUP2 MLOAD DUP1 DUP5 MSTORE PUSH2 0x12E8 DUP2 PUSH1 0x20 DUP7 ADD PUSH1 0x20 DUP7 ADD PUSH2 0x12AC JUMP JUMPDEST PUSH1 0x1F ADD PUSH1 0x1F NOT AND SWAP3 SWAP1 SWAP3 ADD PUSH1 0x20 ADD SWAP3 SWAP2 POP POP JUMP JUMPDEST PUSH1 0x20 DUP2 MSTORE PUSH1 0x0 PUSH2 0xE53 PUSH1 0x20 DUP4 ADD DUP5 PUSH2 0x12D0 JUMP JUMPDEST PUSH1 0x0 PUSH1 0x20 DUP3 DUP5 SUB SLT ISZERO PUSH2 0x1321 JUMPI PUSH1 0x0 DUP1 REVERT JUMPDEST POP CALLDATALOAD SWAP2 SWAP1 POP JUMP JUMPDEST DUP1 CALLDATALOAD PUSH1 0x1 PUSH1 0x1 PUSH1 0xA0 SHL SUB DUP2 AND DUP2 EQ PUSH2 0x9DE JUMPI PUSH1 0x0 DUP1 REVERT JUMPDEST PUSH1 0x0 DUP1 PUSH1 0x40 DUP4 DUP6 SUB SLT ISZERO PUSH2 0x1352 JUMPI PUSH1 0x0 DUP1 REVERT JUMPDEST PUSH2 0x135B DUP4 PUSH2 0x1328 JUMP JUMPDEST SWAP5 PUSH1 0x20 SWAP4 SWAP1 SWAP4 ADD CALLDATALOAD SWAP4 POP POP POP JUMP JUMPDEST PUSH1 0x0 DUP1 PUSH1 0x0 PUSH1 0x60 DUP5 DUP7 SUB SLT ISZERO PUSH2 0x137E JUMPI PUSH1 0x0 DUP1 REVERT JUMPDEST PUSH2 0x1387 DUP5 PUSH2 0x1328 JUMP JUMPDEST SWAP3 POP PUSH2 0x1395 PUSH1 0x20 DUP6 ADD PUSH2 0x1328 JUMP JUMPDEST SWAP2 POP PUSH1 0x40 DUP5 ADD CALLDATALOAD SWAP1 POP SWAP3 POP SWAP3 POP SWAP3 JUMP JUMPDEST PUSH1 0x0 PUSH1 0x20 DUP3 DUP5 SUB SLT ISZERO PUSH2 0x13B7 JUMPI PUSH1 0x0 DUP1 REVERT JUMPDEST PUSH2 0xE53 DUP3 PUSH2 0x1328 JUMP JUMPDEST PUSH1 0x0 DUP1 PUSH1 0x40 DUP4 DUP6 SUB SLT ISZERO PUSH2 0x13D3 JUMPI PUSH1 0x0 DUP1 REVERT JUMPDEST PUSH2 0x13DC DUP4 PUSH2 0x1328 JUMP JUMPDEST SWAP2 POP PUSH1 0x20 DUP4 ADD CALLDATALOAD DUP1 ISZERO ISZERO DUP2 EQ PUSH2 0x13F1 JUMPI PUSH1 0x0 DUP1 REVERT JUMPDEST DUP1 SWAP2 POP POP SWAP3 POP SWAP3 SWAP1 POP JUMP JUMPDEST PUSH4 0x4E487B71 PUSH1 0xE0 SHL PUSH1 0x0 MSTORE PUSH1 0x41 PUSH1 0x4 MSTORE PUSH1 0x24 PUSH1 0x0 REVERT JUMPDEST PUSH1 0x0 PUSH8 0xFFFFFFFFFFFFFFFF DUP1 DUP5 GT ISZERO PUSH2 0x142D JUMPI PUSH2 0x142D PUSH2 0x13FC JUMP JUMPDEST PUSH1 0x40 MLOAD PUSH1 0x1F DUP6 ADD PUSH1 0x1F NOT SWAP1 DUP2 AND PUSH1 0x3F ADD AND DUP2 ADD SWAP1 DUP3 DUP3 GT DUP2 DUP4 LT OR ISZERO PUSH2 0x1455 JUMPI PUSH2 0x1455 PUSH2 0x13FC JUMP JUMPDEST DUP2 PUSH1 0x40 MSTORE DUP1 SWAP4 POP DUP6 DUP2 MSTORE DUP7 DUP7 DUP7 ADD GT ISZERO PUSH2 0x146E JUMPI PUSH1 0x0 DUP1 REVERT JUMPDEST DUP6 DUP6 PUSH1 0x20 DUP4 ADD CALLDATACOPY PUSH1 0x0 PUSH1 0x20 DUP8 DUP4 ADD ADD MSTORE POP POP POP SWAP4 SWAP3 POP POP POP JUMP JUMPDEST PUSH1 0x0 DUP1 PUSH1 0x0 DUP1 PUSH1 0x80 DUP6 DUP8 SUB SLT ISZERO PUSH2 0x149E JUMPI PUSH1 0x0 DUP1 REVERT JUMPDEST PUSH2 0x14A7 DUP6 PUSH2 0x1328 JUMP JUMPDEST SWAP4 POP PUSH2 0x14B5 PUSH1 0x20 DUP7 ADD PUSH2 0x1328 JUMP JUMPDEST SWAP3 POP PUSH1 0x40 DUP6 ADD CALLDATALOAD SWAP2 POP PUSH1 0x60 DUP6 ADD CALLDATALOAD PUSH8 0xFFFFFFFFFFFFFFFF DUP2 GT ISZERO PUSH2 0x14D8 JUMPI PUSH1 0x0 DUP1 REVERT JUMPDEST DUP6 ADD PUSH1 0x1F DUP2 ADD DUP8 SGT PUSH2 0x14E9 JUMPI PUSH1 0x0 DUP1 REVERT JUMPDEST PUSH2 0x14F8 DUP8 DUP3 CALLDATALOAD PUSH1 0x20 DUP5 ADD PUSH2 0x1412 JUMP JUMPDEST SWAP2 POP POP SWAP3 SWAP6 SWAP2 SWAP5 POP SWAP3 POP JUMP JUMPDEST PUSH1 0x0 DUP1 PUSH1 0x40 DUP4 DUP6 SUB SLT ISZERO PUSH2 0x1517 JUMPI PUSH1 0x0 DUP1 REVERT JUMPDEST PUSH2 0x1520 DUP4 PUSH2 0x1328 JUMP JUMPDEST SWAP2 POP PUSH2 0x152E PUSH1 0x20 DUP5 ADD PUSH2 0x1328 JUMP JUMPDEST SWAP1 POP SWAP3 POP SWAP3 SWAP1 POP JUMP JUMPDEST PUSH1 0x0 PUSH1 0x20 DUP3 DUP5 SUB SLT ISZERO PUSH2 0x1549 JUMPI PUSH1 0x0 DUP1 REVERT JUMPDEST DUP2 CALLDATALOAD PUSH8 0xFFFFFFFFFFFFFFFF DUP2 GT ISZERO PUSH2 0x1560 JUMPI PUSH1 0x0 DUP1 REVERT JUMPDEST DUP3 ADD PUSH1 0x1F DUP2 ADD DUP5 SGT PUSH2 0x1571 JUMPI PUSH1 0x0 DUP1 REVERT JUMPDEST PUSH2 0x806 DUP5 DUP3 CALLDATALOAD PUSH1 0x20 DUP5 ADD PUSH2 0x1412 JUMP JUMPDEST PUSH1 0x1 DUP2 DUP2 SHR SWAP1 DUP3 AND DUP1 PUSH2 0x1594 JUMPI PUSH1 0x7F DUP3 AND SWAP2 POP JUMPDEST PUSH1 0x20 DUP3 LT DUP2 SUB PUSH2 0x15B4 JUMPI PUSH4 0x4E487B71 PUSH1 0xE0 SHL PUSH1 0x0 MSTORE PUSH1 0x22 PUSH1 0x4 MSTORE PUSH1 0x24 PUSH1 0x0 REVERT JUMPDEST POP SWAP2 SWAP1 POP JUMP JUMPDEST PUSH1 0x0 DUP4 MLOAD PUSH2 0x15CC DUP2 DUP5 PUSH1 0x20 DUP9 ADD PUSH2 0x12AC JUMP JUMPDEST DUP4 MLOAD SWAP1 DUP4 ADD SWAP1 PUSH2 0x15E0 DUP2 DUP4 PUSH1 0x20 DUP9 ADD PUSH2 0x12AC JUMP JUMPDEST ADD SWAP5 SWAP4 POP POP POP POP JUMP JUMPDEST DUP2 DUP2 SUB DUP2 DUP2 GT ISZERO PUSH2 0x3C9 JUMPI PUSH4 0x4E487B71 PUSH1 0xE0 SHL PUSH1 0x0 MSTORE PUSH1 0x11 PUSH1 0x4 MSTORE PUSH1 0x24 PUSH1 0x0 REVERT JUMPDEST PUSH1 0x40 DUP2 MSTORE PUSH1 0x0 PUSH2 0x161D PUSH1 0x40 DUP4 ADD DUP6 PUSH2 0x12D0 JUMP JUMPDEST SWAP1 POP DUP3 PUSH1 0x20 DUP4 ADD MSTORE SWAP4 SWAP3 POP POP POP JUMP JUMPDEST PUSH1 0x1 PUSH1 0x1 PUSH1 0xA0 SHL SUB DUP6 DUP2 AND DUP3 MSTORE DUP5 AND PUSH1 0x20 DUP3 ADD MSTORE PUSH1 0x40 DUP2 ADD DUP4 SWAP1 MSTORE PUSH1 0x80 PUSH1 0x60 DUP3 ADD DUP2 SWAP1 MSTORE PUSH1 0x0 SWAP1 PUSH2 0x165F SWAP1 DUP4 ADD DUP5 PUSH2 0x12D0 JUMP JUMPDEST SWAP7 SWAP6 POP POP POP POP POP POP JUMP JUMPDEST PUSH1 0x0 PUSH1 0x20 DUP3 DUP5 SUB SLT ISZERO PUSH2 0x167B JUMPI PUSH1 0x0 DUP1 REVERT JUMPDEST DUP2 MLOAD PUSH2 0xE53 DUP2 PUSH2 0x1279 JUMP JUMPDEST PUSH1 0x1F DUP3 GT ISZERO PUSH2 0x661 JUMPI PUSH1 0x0 DUP2 DUP2 MSTORE PUSH1 0x20 DUP2 KECCAK256 PUSH1 0x1F DUP6 ADD PUSH1 0x5 SHR DUP2 ADD PUSH1 0x20 DUP7 LT ISZERO PUSH2 0x16AD JUMPI POP DUP1 JUMPDEST PUSH1 0x1F DUP6 ADD PUSH1 0x5 SHR DUP3 ADD SWAP2 POP JUMPDEST DUP2 DUP2 LT ISZERO PUSH2 0xDDC JUMPI DUP3 DUP2 SSTORE PUSH1 0x1 ADD PUSH2 0x16B9 JUMP JUMPDEST DUP2 MLOAD PUSH8 0xFFFFFFFFFFFFFFFF DUP2 GT ISZERO PUSH2 0x16E6 JUMPI PUSH2 0x16E6 PUSH2 0x13FC JUMP JUMPDEST PUSH2 0x16FA DUP2 PUSH2 0x16F4 DUP5 SLOAD PUSH2 0x1580 JUMP JUMPDEST DUP5 PUSH2 0x1686 JUMP JUMPDEST PUSH1 0x20 DUP1 PUSH1 0x1F DUP4 GT PUSH1 0x1 DUP2 EQ PUSH2 0x172F JUMPI PUSH1 0x0 DUP5 ISZERO PUSH2 0x1717 JUMPI POP DUP6 DUP4 ADD MLOAD JUMPDEST PUSH1 0x0 NOT PUSH1 0x3 DUP7 SWAP1 SHL SHR NOT AND PUSH1 0x1 DUP6 SWAP1 SHL OR DUP6 SSTORE PUSH2 0xDDC JUMP JUMPDEST PUSH1 0x0 DUP6 DUP2 MSTORE PUSH1 0x20 DUP2 KECCAK256 PUSH1 0x1F NOT DUP7 AND SWAP2 JUMPDEST DUP3 DUP2 LT ISZERO PUSH2 0x175E JUMPI DUP9 DUP7 ADD MLOAD DUP3 SSTORE SWAP5 DUP5 ADD SWAP5 PUSH1 0x1 SWAP1 SWAP2 ADD SWAP1 DUP5 ADD PUSH2 0x173F JUMP JUMPDEST POP DUP6 DUP3 LT ISZERO PUSH2 0x177C JUMPI DUP8 DUP6 ADD MLOAD PUSH1 0x0 NOT PUSH1 0x3 DUP9 SWAP1 SHL PUSH1 0xF8 AND SHR NOT AND DUP2 SSTORE JUMPDEST POP POP POP POP POP PUSH1 0x1 SWAP1 DUP2 SHL ADD SWAP1 SSTORE POP JUMP INVALID LOG2 PUSH5 0x6970667358 0x22 SLT KECCAK256 CODESIZE SWAP10 0xAF PUSH12 0x9F5B90E1D7765EAA5AE0E428 CALLDATACOPY GASPRICE 0xE7 CREATE2 DUP11 0xC3 DUP4 0xD7 0xA6 0xB9 0xE5 0xD4 SIGNEXTEND 0x29 0xCA SWAP3 PUSH5 0x736F6C6343 STOP ADDMOD ISZERO STOP CALLER "},"methodIdentifiers":{"approve(address,uint256)":"095ea7b3","balanceOf(address)":"70a08231","getApproved(uint256)":"081812fc","isApprovedForAll(address,address)":"e985e9c5","mintNFT(string)":"fb37e883","mintingFee()":"5a64ad95","name()":"06fdde03","owner()":"8da5cb5b","ownerOf(uint256)":"6352211e","renounceOwnership()":"715018a6","safeTransferFrom(address,address,uint256)":"42842e0e","safeTransferFrom(address,address,uint256,bytes)":"b88d4fde","setApprovalForAll(address,bool)":"a22cb465","supportsInterface(bytes4)":"01ffc9a7","symbol()":"95d89b41","tokenCounter()":"d082e381","tokenURI(uint256)":"c87b56dd","transferFrom(address,address,uint256)":"23b872dd","transferOwnership(address)":"f2fde38b","withdraw()":"3ccfd60b"}}}}}